:100000000C942A000C943F000C943F000C943F0089
:100010000C943F000C943F000C943F000C943F0064
:100020000C943F000C943F000C943F000C943F0054
:100030000C943F000C943F000C943F000C943F0044
:100040000C943F000C943F000C943F000C943F0034
:100050000C943F0011241FBECFE5D8E0DEBFCDBF1A
:1000600011E0A0E6B0E0EAE5FBE602C005900D92E3
:10007000AC38B107D9F70E94901F0C94AB350C94A3
:100080000000EF92FF920F93DF93CF93CDB7DEB7CF
:1000900060970FB6F894DEBF0FBECDBFA82F002328
:1000A00009F461C07E010894E11CF11C88E0F701AD
:1000B00011928A95E9F729833A834B835C836D8398
:1000C0007E83AF83988780E2801BE82FFF27E7FDC0
:1000D000F09549815A816B817C81181684F01986CC
:1000E0001A861B861C86882799278E1B9F0B04C0A7
:1000F000440F551F661F771F8A95D2F728C0202FFF
:10010000332727FD3095DB01CA01022E04C0880F7A
:10011000991FAA1FBB1F0A94D2F789879A87AB87BA
:10012000BC8704C07695679557954795EA95D2F7B1
:100130008D819E81AF81B88504C0880F991FAA1F49
:10014000BB1F2A95D2F7482B592B6A2B7B2B4D8747
:100150005E876F87788B29853A854B855C856D85B1
:100160007E85AF8598898A2F60960FB6F894DEBF9A
:100170000FBECDBFCF91DF910F91FF90EF9008950B
:10018000EF92FF920F931F937B018C0120E030E0F0
:1001900040E05FE40E94A51088238CF0C801B701FD
:1001A00020E030E040E05FE40E941D0F0E94051156
:1001B0009B01AC01205030404040504806C0C8016F
:1001C000B7010E9405119B01AC01B901CA011F9141
:1001D0000F91FF90EF900895AEE5B0E0E2EFF0E010
:1001E0000C946B35A8E04E010894811C911CF4011D
:1001F0006A2E11926A94E9F729833A834B835C83D0
:100200006D837E838F839887CE010996FC011192BE
:10021000AA95E9F7A986BA86CB86DC86ED86FE86A6
:100220000F87188B29843A844B845C84ED84FE8488
:100230000F85188969807A808B809C806DA67EA648
:100240008FA698AA6D807E808F809884E114F10437
:100250000105110509F0B3C3621473048404950405
:1002600008F03DC100E0201600E0300601E0400645
:1002700000E0500688F41FEF2116310441045104B8
:1002800039F030F048E0E42EF12C012D112D18C08A
:10029000EE24FF24870114C020E0221620E032065D
:1002A00020E0420621E0520630F038E1E32EF12C46
:1002B000012D112D05C020E1E22EF12C012D112D73
:1002C000D201C1010E2C04C0B695A79597958795CC
:1002D0000A94D2F785599F4FDC012C9180E290E07F
:1002E000A0E0B0E08E199F09A00BB10B7C018D013D
:1002F000E21AF10801091109E114F10401051105DF
:10030000A1F10E2C04C0220C331C441C551C0A9471
:10031000D2F7A40193010E2C04C0220F331F441FF7
:10032000551F0A94D2F780E290E08E199F096DA4C0
:100330007EA48FA498A804C0969487947794679419
:100340008A95D2F7622A732A842A952AADA4BEA47C
:10035000CFA4D8A804C0AA0CBB1CCC1CDD1CEA94FA
:10036000D2F7ADA6BEA6CFA6D8AA6201EE24FF247E
:10037000CDAADEAAEFAAF8AE9201810120703070FA
:1003800009AF1AAF2BAF3CAFC401B301A70196016F
:100390000E9449357B018C01C401B3012DA93EA9FE
:1003A0004FA958AD0E944935C901DA013C014D0100
:1003B000C401B30129AD3AAD4BAD5CAD0E942A3505
:1003C0009B01AC018701FF24EE24ADA4BEA4CFA401
:1003D000D8A8C601AA27BB2757016801A82AB92AAD
:1003E000CA2ADB2AA216B306C406D506E0F408948E
:1003F0006108710881089108A20CB31CC41CD51CAB
:10040000A214B304C404D50470F0A216B306C40643
:10041000D50648F408946108710881089108A20C77
:10042000B31CC41CD51CA21AB30AC40AD50AC6013F
:10043000B5012DA93EA94FA958AD0E9449357B01B0
:100440008C01C601B5012DA93EA94FA958AD0E9446
:100450004935C901DA015C016D01C601B50129AD5B
:100460003AAD4BAD5CAD0E942A359B01AC018701D2
:10047000FF24EE248DA59EA5AFA5B8A9A070B070ED
:10048000E82AF92A0A2B1B2BE216F30604071507A4
:10049000C0F40894A108B108C108D108E20CF31C0B
:1004A000041D151DE214F3040405150550F0E216B1
:1004B000F3060407150728F40894A108B108C10839
:1004C000D108D3019927882786017501E82AF92ADE
:1004D0000A2B1B2BE9AAFAAA0BAB1CABCFC4211425
:1004E00031044104510471F461E070E080E090E077
:1004F00020E030E040E050E00E944935C901DA01D7
:100500001C012D0100E0201600E0300601E040064D
:1005100000E0500688F41FEF211631044104510415
:1005200031F028F048E050E060E070E017C040E0B3
:1005300050E060E070E012C020E0221620E03206B9
:1005400020E0420621E0520628F048E150E060E059
:1005500070E004C040E150E060E070E0D201C10111
:10056000042E04C0B695A795979587950A94D2F75F
:1005700085599F4FDC012C91E0E2EE2EF12C012DEC
:10058000112DD801C701841B950BA60BB70B821B3D
:100590009109A109B1090097A105B10561F46401B0
:1005A0005301A218B308C408D50831E0632E712C9A
:1005B000812C912C1EC16F968FAF6F97082E04C0AF
:1005C000220C331C441C551C0A94D2F7EE2DE81B58
:1005D000640153010E2E04C0D694C794B794A79417
:1005E0000A94D2F7A40193016F960FAC6F9704C0E1
:1005F000220F331F441F551F0A94D2F76DA47EA407
:100600008FA498A80E2E04C096948794779467942C
:100610000A94D2F784017301E22AF32A042B152BE2
:10062000E9A6FAA60BA71CA73201882499249201F7
:1006300081012070307021960CAF1DAF2EAF3FAFFF
:100640002197C601B501A40193010E9449357B01A0
:100650008C01C601B501A40193010E944935C9016D
:10066000DA0125968CAF9DAFAEAFBFAF2597BC0129
:10067000CD0121962CAD3DAD4EAD5FAD21970E94D1
:100680002A359B01AC018701FF24EE24A9A4BAA45A
:10069000CBA4DCA4C601AA27BB275C016D01AE2850
:1006A000BF28C02AD12AA216B306C406D50660F513
:1006B00025966CAD7DAD8EAD9FAD25976150704098
:1006C0008040904025966CAF7DAF8EAF9FAF259751
:1006D000A20CB31CC41CD51CA214B304C404D504BE
:1006E00098F0A216B306C406D50670F461507040A7
:1006F0008040904025966CAF7DAF8EAF9FAF259721
:10070000A20CB31CC41CD51CA21AB30AC40AD50A75
:10071000C601B501A40193010E9449357B018C01FA
:10072000C601B501A40193010E944935C901DA014E
:100730003C014D01C401B30121962CAD3DAD4EAD40
:100740005FAD21970E942A359B01AC018701FF24F0
:10075000EE2489A59AA5ABA5BCA5A070B0705701E1
:100760006801A82AB92ACA2ADB2AA216B306C40637
:10077000D506E0F408946108710881089108A20C7C
:10078000B31CC41CD51CA214B304C404D50470F05B
:10079000A216B306C406D50648F408946108710889
:1007A00081089108A20CB31CC41CD51C8DA59EA564
:1007B000AFA5B8A96F960FAC6F9704C0880F991FAB
:1007C000AA1FBB1F0A94D2F78DA79EA7AFA7B8ABED
:1007D000A21AB30AC40AD50A2596ECACFDAC0EAD3C
:1007E0001FAD2597D70199278827682A792A8A2A51
:1007F0009B2A82012227332729960CAF1DAF2EAFEB
:100800003FAF2997A2019101407050702D962CAFF7
:100810003DAF4EAF5FAF2D97C601B50129962CAD08
:100820003DAD4EAD5FAD29970E9449357B018C01EE
:10083000C601B50129962CAD3DAD4EAD5FAD2997F2
:100840000E944935C901DA0161968CAF9DAFAEAF08
:10085000BFAF6197BC01CD012D962CAD3DAD4EAD26
:100860005FAD2D970E942A359B01AC018701FF24C3
:10087000EE24ADA4BEA4CFA4D8A8C601AA27BB2746
:1008800057016801A82AB92ACA2ADB2AA216B30688
:10089000C406D50660F561966CAD7DAD8EAD9FAD9D
:1008A0006197615070408040904061966CAF7DAF21
:1008B0008EAF9FAF6197A20CB31CC41CD51CA214B1
:1008C000B304C404D50498F0A216B306C406D50632
:1008D00070F4615070408040904061966CAF7DAF85
:1008E0008EAF9FAF6197A20CB31CC41CD51CA21A7B
:1008F000B30AC40AD50AC601B50129962CAD3DAD8F
:100900004EAD5FAD29970E9449357B018C01C60130
:10091000B50129962CAD3DAD4EAD5FAD29970E9436
:100920004935C901DA015C016D01C601B5012D9699
:100930002CAD3DAD4EAD5FAD2D970E942A359B018C
:10094000AC018701FF24EE248DA59EA5AFA5B8A913
:10095000A070B070E82AF92A0A2B1B2BE216F306C6
:1009600004071507C0F40894A108B108C108D1080C
:10097000E20CF31C041D151DE214F3040405150517
:1009800050F0E216F3060407150728F40894A108AE
:10099000B108C108D1086196ECACFDAC0EAD1FAD3D
:1009A0006197D7019927882796018501082B192B74
:1009B0002A2B3B2B09AB1AAB2BAB3CAB62C26E14A0
:1009C0007F048006910608F451C220E0E21620E080
:1009D000F20621E0020720E0120788F43FEFE31659
:1009E000F1040105110531F028F048E050E060E025
:1009F00070E017C040E050E060E070E012C040E0FE
:100A0000E41640E0F40640E0040741E0140728F053
:100A100048E150E060E070E004C040E150E060E098
:100A200070E0D801C701042E04C0B695A79597952C
:100A300087950A94D2F785599F4FDC012C9130E2BB
:100A4000A32EB12CC12CD12CD601C501841B950B32
:100A5000A60BB70B821B9109A109B1090097A1054B
:100A6000B10589F4E614F7040805190508F4F2C184
:100A70006DA47EA48FA498A86214730484049504C2
:100A800008F0E8C1F3C16E968FAF6E97082E04C0D0
:100A9000EE0CFF1C001F111F0A94D2F76A2D681B71
:100AA000D201C101062E04C0B695A79597958795EA
:100AB0000A94D2F75C016D01AE28BF28C02AD12A62
:100AC000ADA2BEA2CFA2D8A6720161016E960FACF4
:100AD0006E9704C0CC0CDD1CEE1CFF1C0A94D2F7F0
:100AE000C9A2DAA2EBA2FCA264015301062E04C043
:100AF000D694C794B794A7940A94D2F7D401C301AB
:100B00006E960FAC6E9704C0880F991FAA1FBB1F6B
:100B10000A94D2F7EDA4FEA40FA518A904C0169557
:100B20000795F794E7946A95D2F737014801682A48
:100B3000792A8A2A9B2A6D8E7E8E8F8E98A2EDA0AE
:100B4000FEA00FA118A538018824992498018701D7
:100B50002070307065960CAF1DAF2EAF3FAF65971C
:100B6000C601B501A40193010E9449357B018C01A6
:100B7000C601B501A40193010E944935C901DA01FA
:100B80001C012D01C201B10165962CAD3DAD4EADEC
:100B90005FAD65970E942A359B01AC018701FF2458
:100BA000EE24AD8CBE8CCF8CD8A0C601AA27BB2763
:100BB00057016801A82AB92ACA2ADB2AA216B30655
:100BC000C406D50600F508942108310841085108EB
:100BD000EDA0FEA00FA118A5AE0CBF1CC01ED11E1B
:100BE000AE14BF04C006D10670F0A216B306C40648
:100BF000D50648F408942108310841085108AE0C84
:100C0000BF1CC01ED11EA21AB30AC40AD50AC6014F
:100C1000B501A40193010E9449357B018C01C601F5
:100C2000B501A40193010E944935C901DA013C01D3
:100C30004D01C401B30165962CAD3DAD4EAD5FAD28
:100C400065970E942A359B01AC018701FF24EE24A1
:100C50008D8D9E8DAF8DB8A1A070B07057016801C9
:100C6000A82AB92ACA2ADB2AA216B306C406D506C0
:100C700000F5089461087108810891086DA17EA1B2
:100C80008FA198A5A60EB71EC81ED91EA616B70618
:100C9000C806D90670F0A216B306C406D50648F4F5
:100CA00008946108710881089108A60EB71EC81E35
:100CB000D91ED601C501821B930BA40BB50B898FDE
:100CC0009A8FAB8FBC8FD10199278827640153017C
:100CD000A82AB92ACA2ADB2AA9AABAAACBAADCAAB4
:100CE000860175012FEF3FEF40E050E0E222F32252
:100CF00004231523A601662777276D964CAF5DAFB9
:100D00006EAF7FAF6D97A9A0BAA0CBA0DCA06FEFAC
:100D10007FEF80E090E0A622B722C822D92289A1E5
:100D20009AA1ABA1BCA11D0144245524C801B7015F
:100D3000A60195010E942A3569966CAF7DAF8EAFF2
:100D40009FAF6997C801B701A20191010E942A359E
:100D50003B014C016D966CAD7DAD8EAD9FAD6D9739
:100D6000A60195010E942A357B018C016D966CAD20
:100D70007DAD8EAD9FAD6D97A20191010E942A3588
:100D80005B016C01A8019701260D371D481D591DF7
:100D900069966CAC7DAC8EAC9FAC6997C401AA27F8
:100DA000BB27280F391F4A1F5B1F2E153F05400721
:100DB000510748F4E12CF12C61E0062F112DAE0C07
:100DC000BF1CC01ED11ECA01AA27BB27BC01CD0172
:100DD0006A0D7B1D8C1D9D1D698C7A8C8B8C9C8C67
:100DE000661677068806990640F166157705880528
:100DF000990509F043C0D9019927882769962CAD38
:100E00003DAD4EAD5FAD699740705070820F931F3E
:100E1000A41FB51F2DA53EA54FA558A96E960FACD2
:100E20006E9704C0220F331F441F551F0A94D2F738
:100E3000281739074A075B0708F509A91AA92BA93A
:100E40003CA9015010402040304009AB1AAB2BABFD
:100E50003CAB14C066247724430121E030E040E03D
:100E600050E029AB3AAB4BAB5CAB0BC066247724AC
:100E7000430119AA1AAA1BAA1CAA03C06624772434
:100E80004301FE01719688E0DF011D928A95E9F722
:100E9000A9A8BAA8CBA8DCA8A98ABA8ACB8ADC8A76
:100EA0006D8A7E8A8F8A988E29A93A894B895C89B6
:100EB000662D7E898F89988DC25ADF4FE2E10C94AE
:100EC0008735ABE5B0E0E7E6F7E00C946B35A8E0DA
:100ED0004E010894811C911CF4016A2E11926A94AF
:100EE000E9F729833A834B835C836D837E838F8309
:100EF0009887CE010996FC011192AA95E9F7A98677
:100F0000BA86CB86DC86ED86FE860F87188B298411
:100F10003A844B845C84AD84BE84CF84D888298194
:100F20003A814B815C8169962FAF69976A963FAF92
:100F30006A976B964FAF6B976C965FAF6C976C969A
:100F40006CAC7DAC8EAC9FAC6C9769AA7AAA8BAA6C
:100F50009CAA6D817E818F8198853B014C016DAA91
:100F60007EAA8FAA98AEA114B104C104D10409F0DD
:100F700004C3621473048404950408F000C100E003
:100F8000201600E0300601E0400600E0500688F43C
:100F90001FEF211631044104510439F030F088E08C
:100FA000E82EF12C012D112D18C0EE24FF2487010D
:100FB00014C040E0241640E0340640E0440641E01E
:100FC000540630F0B8E1EB2EF12C012D112D05C0A7
:100FD000A0E1EA2EF12C012D112DD201C1010E2C20
:100FE00004C0B695A795979587950A94D2F7855929
:100FF0009F4FDC012C9180E290E0A0E0B0E08E19E0
:101000009F09A00BB10B5C016D01A21AB108C108C8
:10101000D108A9AEBAAECBAEDCAEA114B104C10406
:10102000D10409F43FC069AD062E04C0220C331C64
:10103000441C551C0A94D2F7A4019301062E04C047
:10104000220F331F441F551F0A94D2F780E290E00D
:101050008A199B096C96CCACDDACEEACFFAC6C97FE
:1010600004C0F694E794D794C7948A95D2F7870181
:101070007601E22AF32A042B152BEDAAFEAA0FAB68
:1010800018AF6C968CAD9DADAEADBFAD6C9704C086
:10109000880F991FAA1FBB1F6A95D2F789AB9AAB1D
:1010A000ABABBCAB320188249924B201A1016070C2
:1010B000707021964CAF5DAF6EAF7FAF21976DA979
:1010C0007EA98FA998ADA40193010E9449357B01A7
:1010D0008C016DA97EA98FA998ADA40193010E94EE
:1010E0004935CA01B90121962CAD3DAD4EAD5FAD7C
:1010F00021970E942A359B01AC018701FF24EE2431
:10110000A9A8BAA8CBA8DCA8C601AA27BB27570163
:101110006801A82AB92ACA2ADB2AA216B306C4067D
:10112000D50690F4A20CB31CC41CD51CA214B304A5
:10113000C404D50448F0A216B306C406D50620F4AC
:10114000A20CB31CC41CD51CA21AB30AC40AD50A2B
:10115000C601B501A40193010E9449357B018C01B0
:10116000C601B501A40193010E944935CA01B90124
:1011700021962CAD3DAD4EAD5FAD2197BAC1211486
:1011800031044104510471F461E070E080E090E0CA
:1011900020E030E040E050E00E944935C901DA012A
:1011A0001C012D0100E0201600E0300601E04006A1
:1011B00000E0500688F41FEF211631044104510469
:1011C00039F030F068E0E62EF12C012D112D18C019
:1011D000EE24FF24870114C040E0241640E03406CA
:1011E00040E0440641E0540630F058E1E52EF12C91
:1011F000012D112D05C040E1E42EF12C012D112D02
:10120000D201C1010E2C04C0B695A795979587957C
:101210000A94D2F785599F4FDC012C9130E2A32E1E
:10122000B12CC12CD12CD601C5018E199F09A00B60
:10123000B10B7C018D01E21AF10801091109E9AE37
:10124000FAAE0BAF1CAFE114F1040105110539F43E
:1012500064015301A218B308C408D508E2C0F9AC70
:101260006896FFAE68970F2C04C0220C331C441CF8
:10127000551C0A94D2F78A2D8F1964015301082E48
:1012800004C0D694C794B794A7940A94D2F7A40143
:10129000930104C0220F331F441F551FFA94D2F745
:1012A0006C966CAC7DAC8EAC9FAC6C9704C0969485
:1012B0008794779467948A95D2F784017301E22A20
:1012C000F32A042B152BEDA6FEA60FA718AB3201AF
:1012D00088249924B201A1016070707025964CAFEA
:1012E0005DAF6EAF7FAF2597C601B501A401930135
:1012F0000E9449357B018C01C601B501A40193010F
:101300000E944935CA01B90125962CAD3DAD4EADBF
:101310005FAD25970E942A359B01AC018701FF2410
:10132000EE24ADA4BEA4CFA4D8A8C601AA27BB278B
:101330005C016D01AE28BF28C02AD12AA216B306CF
:10134000C406D50690F4A20CB31CC41CD51CA21470
:10135000B304C404D50448F0A216B306C406D506E7
:1013600020F4A20CB31CC41CD51CA21AB30AC40AD4
:10137000D50AC601B501A40193010E9449357B013C
:101380008C01C601B501A40193010E944935CA012F
:10139000B90125962CAD3DAD4EAD5FAD25970E94B0
:1013A0002A359B01AC018701FF24EE248DA59EA563
:1013B000AFA5B8A9A070B07057016801A82AB92AD2
:1013C000CA2ADB2AA216B306C406D50690F4A20CDC
:1013D000B31CC41CD51CA214B304C404D50448F027
:1013E000A216B306C406D50620F4A20CB31CC41C76
:1013F000D51C6C96ECACFDAC0EAD1FAD6C97689631
:101400000FAC689704C0EE0CFF1C001F111F0A945C
:10141000D2F7E9AAFAAA0BAB1CABA21AB30AC40A08
:10142000D50A320188249924B201A101607070703C
:1014300029964CAF5DAF6EAF7FAF2997C601B5015E
:10144000A40193010E9449357B018C01C601B501BD
:10145000A40193010E944935CA01B90129962CAD16
:101460003DAD4EAD5FAD29970E942A359B01AC0181
:101470008701FF24EE24A9A8BAA8CBA8DCA8C6013E
:10148000AA27BB2757016801A82AB92ACA2ADB2A3A
:10149000A216B306C406D50690F4A20CB31CC41C55
:1014A000D51CA214B304C404D50448F0A216B30694
:1014B000C406D50620F4A20CB31CC41CD51CA21A69
:1014C000B30AC40AD50AC601B501A40193010E945A
:1014D00049357B018C01C601B501A40193010E942D
:1014E0004935CA01B90129962CAD3DAD4EAD5FAD70
:1014F00029970E942A359B01AC018701FF24EE2425
:1015000089A99AA9ABA9BCA9A070B070E82AF92A48
:101510000A2B1B2BE216F3060407150790F4E20CC6
:10152000F31C041D151DE214F3040405150548F011
:10153000E216F3060407150720F4E20CF31C041D61
:10154000151DE21AF30A040B150BD801C70109ACEB
:1015500004C0B695A795979587950A94D2F7898B7D
:101560009A8BAB8BBC8B1D8A1E8A1F8A188E282FE4
:101570003A894B895C896D890CC36A147B048C049D
:101580009D0408F409C300E0A01600E0B00601E0E5
:10159000C00600E0D00688F41FEFA116B104C10414
:1015A000D10439F030F028E0E22EF12C012D112D7C
:1015B00018C0EE24FF24870114C040E0A41640E0C8
:1015C000B40640E0C40641E0D40630F098E1E92ECC
:1015D000F12C012D112D05C080E1E82EF12C012DFB
:1015E000112DD601C5010E2C04C0B695A79597956F
:1015F00087950A94D2F785599F4FDC012C9180E2A0
:1016000090E0A0E0B0E08E199F09A00BB10B821B07
:101610009109A109B1090097A105B10509F04FC0D1
:10162000A614B704C804D90458F06C96ECACFDAC11
:101630000EAD1FAD6C97E214F3040405150568F1B7
:101640006C96ECACFDAC0EAD1FAD6C97E218F308D8
:1016500004091509A40193012A193B094C095D09E4
:10166000AA24BB2465016C966CAD7DAD8EAD9FAD9B
:101670006C976E157F058007910728F4B1E0AB2EBB
:10168000B12CC12CD12CDA01C9018A199B09AC09F2
:10169000BD098DAB9EABAFABB8AFE98AFA8A0B8BB5
:1016A0001C8B6DA87EA88FA898AC6D8A7E8A8F8AC5
:1016B000988E2E2D3A894B895C896DA96AC26796EE
:1016C0008FAF6797A6019501082E04C0220F331F24
:1016D000441F551F0A94D2F7A0E2AA2EA81A6696B4
:1016E000AFAE6697D201C10104C0B695A795979594
:1016F0008795AA94D2F76C017D01C22AD32AE42AE5
:10170000F52AC9A6DAA6EBA6FCA6820171016796A6
:101710000FAC679704C0EE0CFF1C001F111F0A944A
:10172000D2F7EDA2FEA20FA318A76401530166969B
:101730000FAC669704C0D694C794B794A7940A9444
:10174000D2F7A401930167960FAC679704C0220FEC
:10175000331F441F551F0A94D2F76C968CAD9DAD74
:10176000AEADBFAD6C9766960FAC669704C0B695EC
:10177000A795979587950A94D2F73C014D01622A67
:10178000732A842A952A69A27AA28BA29CA26C96BB
:10179000ECACFDAC0EAD1FAD6C9767960FAC6797C8
:1017A00004C0EE0CFF1C001F111F0A94D2F7ED8E2F
:1017B000FE8E0F8F18A349A55AA56BA57CA53B01EA
:1017C00088249924607070702D964CAF5DAF6EAF19
:1017D0007FAF2D97C601B501A40193010E94493541
:1017E0007B018C01C601B501A40193010E9449351A
:1017F000C901DA011C012D01C201B1012D962CADE8
:101800003DAD4EAD5FAD2D970E942A359B01AC01D9
:101810008701FF24EE24A9A0BAA0CBA0DCA0C601BA
:10182000AA27BB2757016801A82AB92ACA2ADB2A96
:10183000A216B306C406D50600F50894210831089F
:1018400041085108E9A4FAA40BA51CA5AE0CBF1CC5
:10185000C01ED11EAE14BF04C006D10670F0A21681
:10186000B306C406D50648F4089421083108410897
:101870005108AE0CBF1CC01ED11EA21AB30AC40A66
:10188000D50AC601B501A40193010E9449357B0127
:101890008C01C601B501A40193010E944935C9011B
:1018A000DA013C014D01C401B3012D962CAD3DADD3
:1018B0004EAD5FAD2D970E942A359B01AC0187018B
:1018C000FF24EE2489A19AA1ABA1BCA1A070B070A5
:1018D00057016801A82AB92ACA2ADB2AA216B30628
:1018E000C406D50600F508946108710881089108BE
:1018F00069A57AA58BA59CA5A60EB71EC81ED91EE4
:10190000A616B706C806D90670F0A216B306C40616
:10191000D50648F408946108710881089108A60E5C
:10192000B71EC81ED91ED601C501821B930BA40B7E
:10193000B50B898F9A8FAB8FBC8FD10199278827E0
:1019400084017301E82AF92A0A2B1B2B4FEFA42EDE
:101950004FEFB42EC12CD12CAE20BF20C022D122FB
:101960007801002711276DA07EA08FA098A44FEFCB
:101970005FEF60E070E064227522862297228DA1DD
:101980009EA1AFA1B8A5BD018827992765966CAF28
:101990007DAF8EAF9FAF6597C601B501A4019301DE
:1019A0000E942A3561966CAF7DAF8EAF9FAF619775
:1019B000C601B50165962CAD3DAD4EAD5FAD6597E9
:1019C0000E942A351B012C01C801B701A401930113
:1019D0000E942A355B016C01C801B70165962CADE8
:1019E0003DAD4EAD5FAD65970E942A357B018C0100
:1019F000A6019501220D331D441D551D61966CAC49
:101A00007DAC8EAC9FAC6197C401AA27BB27280F81
:101A1000391F4A1F5B1F2A153B054C055D0548F41D
:101A2000812C912CE1E0AE2EB12CE80CF91C0A1DA2
:101A30001B1DCA01AA27BB2757016801A80EB91EA2
:101A4000CA1EDB1EA9013327222761968CAD9DADEE
:101A5000AEADBFAD6197A070B070280F391F4A1F9F
:101A60005B1FE98CFA8C0B8D1C8DEA14FB040C05B2
:101A70001D0570F0AE14BF04C006D10669F56D8D6A
:101A80007E8D8F8D98A1621773078407950720F5C7
:101A9000DA01C9016DA07EA08FA098A486199709CC
:101AA000A809B909E9A4FAA40BA51CA5AE18BF089A
:101AB000C00AD10AEE24FF248701281739074A07F4
:101AC0005B0728F421E0E22EF12C012D112DAE1838
:101AD000BF08C00AD10A02C0DA01C9016D8C7E8C30
:101AE0008F8C98A0681A790A8A0A9B0A498D5A8DA8
:101AF0006B8D7C8D4A195B096C097D095A016B015C
:101B00002224332421016D8D7E8D8F8D98A1661541
:101B100077058805990528F481E0282E312C412C81
:101B2000512C86017501E218F30804091509A80172
:101B3000970166960FAC669704C0220F331F441FAF
:101B4000551F0A94D2F7D401C30167960FAC67976B
:101B500004C0B695A795979587950A94D2F7282B38
:101B6000392B4A2B5B2B298B3A8B4B8B5C8B6796E3
:101B70000FAC679704C016950795F794E7940A94FD
:101B8000D2F7ED8AFE8A0F8B188F3A894B895C89D0
:101B90006E2D7E898F89988DC55ADF4FE2E10C94B6
:101BA0008735A0E0B0E0E7EDFDE00C946B35DC019B
:101BB0002B01FA019C91923008F439C1EB01888124
:101BC000823008F433C1943069F4843009F02FC1B5
:101BD00011969C9111978981981709F428C1A3E661
:101BE000B0E025C1843009F421C18230A9F49230DB
:101BF00009F01DC19A01AD0188E0EA010990AE012A
:101C0000E90109929E018150C1F7E2018981119693
:101C10009C918923818308C1923009F407C11296EF
:101C20002D903C901397EB018A819B811496AD9087
:101C3000BD90CD90DC901797EC80FD800E811F81C8
:101C40009101281B390BB90137FF04C0662777279C
:101C5000621B730B603271050CF061C01216130623
:101C60006CF537014801062E04C09694879477944A
:101C700067940A94D2F721E030E040E050E004C0DD
:101C8000220F331F441F551F6A95D2F72150304051
:101C9000404050402E213F21402351232115310542
:101CA0004105510521F021E030E040E050E07901AC
:101CB0008A01E628F728082919293CC0232BD1F1ED
:101CC000260E371E35014601062E04C096948794D1
:101CD000779467940A94D2F721E030E040E050E036
:101CE00004C0220F331F441F551F6A95D2F721509D
:101CF0003040404050402A213B214C215D2121159C
:101D000031054105510521F021E030E040E050E08F
:101D100059016A01A628B728C828D9280BC08215FE
:101D200093052CF01C01AA24BB24650103C0EE24FA
:101D3000FF24870111969C91D20111968C919817DE
:101D400009F445C0992339F0A80197012A193B09E4
:101D50004C095D0906C0A60195012E193F09400BEB
:101D6000510B57FD08C011823382228224833583B0
:101D7000468357831DC081E0818333822282882776
:101D80009927DC01821B930BA40BB50B84839583ED
:101D9000A683B7830DC0220F331F441F551F248312
:101DA000358346835783828193810197938382830E
:101DB0002481358146815781DA01C9010197A10942
:101DC000B1098F5F9F4FAF4FBF4328F30BC0918383
:101DD00033822282EA0CFB1C0C1D1D1DE482F5825D
:101DE0000683178383E08083248135814681578170
:101DF00057FF1AC0C901AA2797FDA095BA2F817075
:101E00009070A070B0705695479537952795822BA6
:101E1000932BA42BB52B84839583A683B7838281D0
:101E20009381019693838283DF0101C0D201CD01AA
:101E3000CDB7DEB7E2E10C948735A0E2B0E0E3E293
:101E4000FFE00C94773569837A838B839C832D83A1
:101E50003E834F835887E9E0EE2EF12CEC0EFD1EF9
:101E6000CE010196B7010E942E128E010F5E1F4F08
:101E7000CE010596B8010E942E128A8991E0892729
:101E80008A8BC701B801AE01475E5F4F0E94D10D3A
:101E90000E945911A096E6E00C949335A0E2B0E0C0
:101EA000E4E5FFE00C94773569837A838B839C8328
:101EB0002D833E834F835887F9E0EF2EF12CEC0EF3
:101EC000FD1ECE010196B7010E942E128E010F5EFB
:101ED0001F4FCE010596B8010E942E12C701B8010E
:101EE000AE01475E5F4F0E94D10D0E945911A0962E
:101EF000E6E00C949335A0E2B0E0E1E8FFE00C945A
:101F00006B3569837A838B839C832D833E834F83D8
:101F10005887CE010196BE01675F7F4F0E942E1247
:101F2000CE010596BE016F5E7F4F0E942E129985ED
:101F3000923088F089898230C8F0943019F4823068
:101F400051F404C0843029F4923081F483E690E0A7
:101F5000C6C0923049F420E09A858A89981321E01E
:101F60002A87CE010996BBC0823049F420E09A85C9
:101F70008A89981321E02A8BCE014196B0C02D8426
:101F80003E844F8458886D887E888F88988CEE2494
:101F9000FF248701AA24BB24650140E050E060E0F3
:101FA00070E0E0E0F0E0C10181709070892BE9F011
:101FB000E60CF71C081D191D9A01AB012A0D3B1DEB
:101FC0004C1D5D1D80E090E0A0E0B0E0E614F70459
:101FD0000805190520F481E090E0A0E0B0E0BA0126
:101FE000A901480F591F6A1F7B1FAA0CBB1CCC1CE0
:101FF000DD1C97FE08C081E090E0A0E0B0E0A82AD8
:10200000B92ACA2ADB2A3196E032F10549F0660C7A
:10201000771C881C991C5694479437942794C3CFF7
:10202000FA85EA892B893C898B859C85280F391F85
:102030002E5F3F4F17C0CA0181709070892B61F0ED
:1020400016950795F794E79480E090E0A0E0B0E85B
:10205000E82AF92A0A2B1B2B769567955795479501
:102060002F5F3F4F77FDE7CF0CC0440F551F661F12
:10207000771F17FD4160EE0CFF1C001F111F215040
:102080003040403090E0590790E0690790E47907CC
:1020900060F32B8F3C8FDB01CA018F779070A070AB
:1020A000B07080349105A105B10561F447FD0AC007
:1020B000E114F1040105110529F0405C5F4F6F4FF9
:1020C0007F4F40781A8EFE1711F081E08A8F4D8F76
:1020D0005E8F6F8F78A383E0898FCE0149960E942F
:1020E0005911A096E2E10C948735A8E1B0E0EBE746
:1020F000F0E10C94773569837A838B839C832D83FD
:102100003E834F83588789E0E82EF12CEC0EFD1EAC
:10211000CE010196B7010E942E128E010F5E1F4F55
:10212000CE010596B8010E942E128985823040F0BA
:102130008989823028F0C701B8010E94A61201C027
:102140008FEF6896E6E00C949335A8E1B0E0EBEAF7
:10215000F0E10C94773569837A838B839C832D839C
:102160003E834F83588789E0E82EF12CEC0EFD1E4C
:10217000CE010196B7010E942E128E010F5E1F4FF5
:10218000CE010596B8010E942E128985823040F05A
:102190008989823028F0C701B8010E94A61201C0C7
:1021A0008FEF6896E6E00C949335A8E1B0E0EBED94
:1021B000F0E10C94773569837A838B839C832D833C
:1021C0003E834F83588789E0E82EF12CEC0EFD1EEC
:1021D000CE010196B7010E942E128E010F5E1F4F95
:1021E000CE010596B8010E942E128985823040F0FA
:1021F0008989823028F0C701B8010E94A61201C067
:1022000081E06896E6E00C949335ACE0B0E0EBE05A
:10221000F1E10C947B3569837A838B839C83CE01B7
:102220000196BE016B5F7F4F0E942E128D8182301E
:1022300061F1823050F1843021F48E81882351F194
:102240002EC02F81388537FD20C06E812F3131059A
:102250001CF06623F9F023C08EE190E0821B930B03
:1022600029853A854B855C8504C0569547953795F9
:1022700027958A95D2F76623B1F050954095309511
:1022800021953F4F4F4F5F4F0EC020E030E040E0C0
:1022900050E009C02FEF3FEF4FEF5FE704C020E0B1
:1022A00030E040E050E8B901CA012C96E2E00C941D
:1022B0009735DF92EF92FF920F931F93FC01E4801A
:1022C000F58006811781D1808081823048F480E0DA
:1022D00090E0A0E1B0E0E82AF92A0A2B1B2BA5C068
:1022E000843009F49FC0823021F4EE24FF2487015A
:1022F00005C0E114F1040105110519F4E0E0F0E076
:1023000096C0628173819FEF623879070CF05BC0E1
:1023100022E83FEF261B370B2A3131052CF020E055
:1023200030E040E050E02AC0B801A701022E04C00E
:1023300076956795579547950A94D2F781E090E096
:10234000A0E0B0E004C0880F991FAA1FBB1F2A9508
:10235000D2F70197A109B1098E219F21A023B123B2
:102360000097A105B10521F081E090E0A0E0B0E088
:102370009A01AB01282B392B4A2B5B2BDA01C901BF
:102380008F779070A070B07080349105A105B10571
:1023900039F427FF09C0205C3F4F4F4F5F4F04C007
:1023A000215C3F4F4F4F5F4FE0E0F0E02030A0E076
:1023B0003A07A0E04A07A0E45A0710F0E1E0F0E095
:1023C00079018A0127C06038710564F5FB01E15885
:1023D000FF4FD801C7018F779070A070B070803424
:1023E0009105A105B10539F4E7FE0DC080E490E048
:1023F000A0E0B0E004C08FE390E0A0E0B0E0E80E21
:10240000F91E0A1F1B1F17FF05C016950795F794A5
:10241000E794319687E016950795F794E7948A95A7
:10242000D1F705C0EE24FF248701EFEFF0E06E2F17
:10243000679566276795902F9F77D794DD24D7946B
:102440008E2F8695492F462B582F5D29B701CA013B
:102450001F910F91FF90EF90DF900895FC01DB0139
:10246000408151812281622F6F7770E0221F2227E5
:10247000221F9381892F880F822B282F30E0991FEC
:102480009927991F11969C93119721153105A9F54C
:10249000411551056105710511F482E037C082E8EC
:1024A0009FEF13969C938E9312979A01AB0167E06E
:1024B000220F331F441F551F6A95D1F783E08C9379
:1024C0000DC0220F331F441F551F12968D919C91F2
:1024D0001397019713969C938E931297203080E068
:1024E000380780E0480780E4580758F314962D9386
:1024F0003D934D935C93179708952F3F310579F4E1
:10250000411551056105710519F484E08C93089516
:1025100064FF03C081E08C9312C01C9210C02F573F
:10252000304013963C932E93129783E08C9387E070
:10253000440F551F661F771F8A95D1F77064149654
:102540004D935D936D937C93179708951F93DC01D2
:10255000FB019C91923008F447C08081823008F4DE
:1025600043C0943051F411961C91843099F58181C7
:10257000682F70E0611B71093FC0843021F09230F8
:1025800031F48230B9F18181882389F12DC011960F
:102590001C9111978230F1F081811817D9F41296AD
:1025A0002D913C911397828193818217930794F028
:1025B00028173907BCF014968D919D910D90BC9110
:1025C000A02D2481358146815781281739074A0774
:1025D0005B0718F4112341F00AC082179307A40780
:1025E000B50740F4112319F061E070E005C06FEF0A
:1025F0007FEF02C060E070E0CB011F910895DF9390
:10260000CF93CDB7DEB727970FB6F894DEBF0FBED6
:10261000CDBF89836A834B838B81813009F070C081
:102620008981282F30E03F832E838E819F818230E5
:10263000910551F12E813F812330310534F48E8193
:102640009F818130910561F0D3C02E813F8123307D
:10265000310571F18E819F8184309105E9F1C8C007
:10266000AAE3B0E0EAE3F0E08081482F8A81282FD6
:1026700030E081E090E0022E02C0880F991F0A949A
:10268000E2F7842B8C93B4C0A7E3B0E0E7E3F0E07B
:102690008081482F8A81282F30E081E090E0022E4F
:1026A00002C0880F991F0A94E2F7842B8C93A0C074
:1026B000A4E3B0E0E4E3F0E08081482F8A81282F92
:1026C00030E081E090E0022E02C0880F991F0A944A
:1026D000E2F7842B8C938CC0A1E3B0E0E1E3F0E05F
:1026E0008081482F8A81282F30E081E090E0022EFF
:1026F00002C0880F991F0A94E2F7842B8C9378C04C
:102700008B81882309F074C08981282F30E03D83B4
:102710002C838C819D818230910561F12C813D81DA
:102720002330310534F48C819D818130910569F02D
:102730005FC02C813D812330310589F18C819D81E1
:102740008430910509F440C053C0AAE3B0E0EAE345
:10275000F0E08081482F8A81282F30E081E090E0EE
:10276000022E02C0880F991F0A94E2F780958423F5
:102770008C933EC0A7E3B0E0E7E3F0E08081482F10
:102780008A81282F30E081E090E0022E02C0880F7D
:10279000991F0A94E2F7809584238C9329C0A4E3BF
:1027A000B0E0E4E3F0E08081482F8A81282F30E018
:1027B00081E090E0022E02C0880F991F0A94E2F790
:1027C000809584238C9314C0A1E3B0E0E1E3F0E0B2
:1027D0008081482F8A81282F30E081E090E0022E0E
:1027E00002C0880F991F0A94E2F7809584238C9386
:1027F00027960FB6F894DEBF0FBECDBFCF91DF9105
:102800000895DF93CF93CDB7DEB727970FB6F8942F
:10281000DEBF0FBECDBF89836A834B838B8181303E
:1028200009F070C08981282F30E03F832E838E818C
:102830009F818230910551F12E813F8123303105F6
:1028400034F48E819F818130910561F0D3C02E8157
:102850003F812330310571F18E819F818430910554
:10286000E9F1C8C0ABE3B0E0EBE3F0E08081482FD2
:102870008A81282F30E081E090E0022E02C0880F8C
:10288000991F0A94E2F7842B8C93B4C0A8E3B0E0BC
:10289000E8E3F0E08081482F8A81282F30E081E052
:1028A00090E0022E02C0880F991F0A94E2F7842B51
:1028B0008C93A0C0A5E3B0E0E5E3F0E08081482F71
:1028C0008A81282F30E081E090E0022E02C0880F3C
:1028D000991F0A94E2F7842B8C938CC0A2E3B0E09A
:1028E000E2E3F0E08081482F8A81282F30E081E008
:1028F00090E0022E02C0880F991F0A94E2F7842B01
:102900008C9378C08B81882309F074C08981282F2B
:1029100030E03D832C838C819D818230910561F173
:102920002C813D812330310534F48C819D818130AF
:10293000910569F05FC02C813D812330310589F11B
:102940008C819D818430910509F440C053C0ABE374
:10295000B0E0EBE3F0E08081482F8A81282F30E05F
:1029600081E090E0022E02C0880F991F0A94E2F7DE
:10297000809584238C933EC0A8E3B0E0E8E3F0E0C8
:102980008081482F8A81282F30E081E090E0022E5C
:1029900002C0880F991F0A94E2F7809584238C93D4
:1029A00029C0A5E3B0E0E5E3F0E08081482F8A810B
:1029B000282F30E081E090E0022E02C0880F991F9E
:1029C0000A94E2F7809584238C9314C0A2E3B0E0CC
:1029D000E2E3F0E08081482F8A81282F30E081E017
:1029E00090E0022E02C0880F991F0A94E2F78095AA
:1029F00084238C9327960FB6F894DEBF0FBECDBF0D
:102A0000CF91DF910895DF93CF9300D000D00F9244
:102A1000CDB7DEB78A836B838A81282F30E03D8370
:102A20002C834C815D814230510541F18C819D8127
:102A30008330910534F42C813D812130310561F0E2
:102A400052C04C815D814330510551F18C819D8193
:102A500084309105B9F147C0E9E3F0E08081282F87
:102A600030E08B81882F90E0A90102C055954795F1
:102A70008A95E2F7CA018170898335C0E6E3F0E008
:102A80008081282F30E08B81882F90E0A90102C03F
:102A9000559547958A95E2F7CA018170898323C0CD
:102AA000E3E3F0E08081282F30E08B81882F90E0F5
:102AB000A90102C0559547958A95E2F7CA01817030
:102AC000898311C0E0E3F0E08081282F30E08B8122
:102AD000882F90E0A90102C0559547958A95E2F7A5
:102AE000CA018170898389810F900F900F900F9098
:102AF0000F90CF91DF910895DF93CF9300D000D056
:102B0000CDB7DEB789836A838981282F30E03C8383
:102B10002B838B819C8182309105D9F02B813C8164
:102B20002330310534F48B819C818130910561F033
:102B30001EC02B813C812330310581F08B819C812B
:102B40008430910581F013C0EAE3F0E08A8180834C
:102B50000EC0E7E3F0E08A81808309C0E4E3F0E09F
:102B60008A81808304C0E1E3F0E08A8180830F9052
:102B70000F900F900F90CF91DF910895DF93CF9337
:102B800000D000D0CDB7DEB789836A838981282F32
:102B900030E03C832B838B819C8182309105D9F07E
:102BA0002B813C812330310534F48B819C81813031
:102BB000910561F01EC02B813C812330310581F0ED
:102BC0008B819C818430910581F013C0EBE3F0E0B0
:102BD0008A8180830EC0E8E3F0E08A81808309C0A7
:102BE000E5E3F0E08A81808304C0E2E3F0E08A81DB
:102BF00080830F900F900F900F90CF91DF910895E9
:102C0000DF93CF9300D000D0CDB7DEB789836A833E
:102C10008981282F30E03C832B838B819C818230FB
:102C2000910551F12B813C812330310534F48B81A6
:102C30009C818130910561F05AC02B813C81233009
:102C4000310571F18B819C8184309105E9F14FC090
:102C5000ABE3B0E0EBE3F0E08081482F8A81282FDE
:102C600030E081E090E0022E02C0880F991F0A94A4
:102C7000E2F784278C933BC0A8E3B0E0E8E3F0E000
:102C80008081482F8A81282F30E081E090E0022E59
:102C900002C0880F991F0A94E2F784278C9327C0FB
:102CA000A5E3B0E0E5E3F0E08081482F8A81282F9A
:102CB00030E081E090E0022E02C0880F991F0A9454
:102CC000E2F784278C9313C0A2E3B0E0E2E3F0E0E4
:102CD0008081482F8A81282F30E081E090E0022E09
:102CE00002C0880F991F0A94E2F784278C930F90F3
:102CF0000F900F900F90CF91DF910895DF93CF93B6
:102D0000CDB7DEB728970FB6F894DEBF0FBECDBFA4
:102D100018861F820BC09F8183E0692F41E00E94CB
:102D2000FF128F819885019698878F838F81988570
:102D30008430910584F31E821D820BC09D8183E047
:102D4000692F41E00E9401148D819E8101969E832E
:102D50008D838D819E818430910584F384E090E0A1
:102D60009C838B830BC09B8183E0692F40E00E9492
:102D7000FF128B819C8101969C838B838B819C812C
:102D80008830910584F384E090E09A8389830BC0B6
:102D9000998183E0692F41E00E94011489819A8121
:102DA00001969A83898389819A818830910584F379
:102DB00028960FB6F894DEBF0FBECDBFCF91DF913E
:102DC0000895DF93CF9300D000D000D0CDB7DEB709
:102DD0008AE78E8381E08D831C821B8243C09B81A6
:102DE00083E0692F40E00E94011484E090E09A8320
:102DF000898328C0998183E0692F0E9403158D8300
:102E00008D81882399F44B815C8189819A819C0111
:102E100024503040CA01880F991F880F991F820FD4
:102E2000931FFC01E559FE4F80818E83998183E0D9
:102E3000692F0E9403158823C9F389819A8101961D
:102E40009A83898389819A81883091059CF29B813C
:102E500083E0692F41E00E9401148B819C810196DF
:102E60009C838B838B819C81843091050CF4B7CF3C
:102E70008E8126960FB6F894DEBF0FBECDBFCF91E0
:102E8000DF910895DF93CF93CDB7DEB76C970FB680
:102E9000F894DEBF0FBECDBF81E06FEF0E947C15BE
:102EA00082E065E041E00E94FF1282E067E041E0DD
:102EB0000E94FF1280E090E0A8E4B2E4898F9A8F2C
:102EC000AB8FBC8F698D7A8D8B8D9C8D20E030E02F
:102ED0004AEF54E40E947B0FDC01CB018D8B9E8B6B
:102EE000AF8BB88F6D897E898F89988D20E030E017
:102EF00040E85FE30E94D51088232CF481E090E045
:102F00009C8B8B8B3FC06D897E898F89988D20E04B
:102F10003FEF4FE757E40E94751018164CF5698D86
:102F20007A8D8B8D9C8D20E030E040E251E40E9450
:102F30007B0FDC01CB01BC01CD010E94C000DC0194
:102F4000CB019C8B8B8B0FC088EC90E09A8B898B8C
:102F500089899A890197F1F79A8B898B8B899C894A
:102F600001979C8B8B8B8B899C89009769F714C088
:102F70006D897E898F89988D0E94C000DC01CB010C
:102F80009C8B8B8B8B899C89988B8F878F8598895D
:102F90000197F1F7988B8F8788E30E9453188CE094
:102FA0000E94531881E00E94531880E090E0A0E84E
:102FB000BFE38B879C87AD87BE876B857C858D85BE
:102FC0009E8520E030E04AEF54E40E947B0FDC0154
:102FD000CB018F839887A987BA876F817885898588
:102FE0009A8520E030E040E85FE30E94D510882316
:102FF0002CF481E090E09E838D833FC06F817885C3
:1030000089859A8520E03FEF4FE757E40E947510CD
:1030100018164CF56B857C858D859E8520E030E00B
:1030200040E251E40E947B0FDC01CB01BC01CD01E9
:103030000E94C000DC01CB019E838D830FC088EC11
:1030400090E09C838B838B819C810197F1F79C831B
:103050008B838D819E8101979E838D838D819E813F
:10306000009769F714C06F81788589859A850E94D9
:10307000C000DC01CB019E838D838D819E819A836C
:10308000898389819A810197F1F79A83898386E000
:103090000E9453186C960FB6F894DEBF0FBECDBFDA
:1030A000CF91DF910895DF93CF93CDB7DEB76D97C2
:1030B0000FB6F894DEBF0FBECDBF8D8F82E065E006
:1030C00040E00E94011481E06D8D0E94BE1582E0F7
:1030D00067E041E00E94011480E090E0A0E8BFE3D7
:1030E000898F9A8FAB8FBC8F698D7A8D8B8D9C8DDC
:1030F00020E030E04AEF54E40E947B0FDC01CB017A
:103100008D8B9E8BAF8BB88F6D897E898F89988DC3
:1031100020E030E040E85FE30E94D51088232CF4E3
:1031200081E090E09C8B8B8B3FC06D897E898F897D
:10313000988D20E03FEF4FE757E40E947510181676
:103140004CF5698D7A8D8B8D9C8D20E030E040E2CE
:1031500051E40E947B0FDC01CB01BC01CD010E9438
:10316000C000DC01CB019C8B8B8B0FC088EC90E006
:103170009A8B898B89899A890197F1F79A8B898B28
:103180008B899C8901979C8B8B8B8B899C89009761
:1031900069F714C06D897E898F89988D0E94C0005F
:1031A000DC01CB019C8B8B8B8B899C89988B8F87C7
:1031B0008F8598890197F1F7988B8F8782E067E078
:1031C00040E00E94011480E090E0A0E8BFE38B871C
:1031D0009C87AD87BE876B857C858D859E8520E02D
:1031E00030E04AEF54E40E947B0FDC01CB018F8377
:1031F0009887A987BA876F81788589859A8520E025
:1032000030E040E85FE30E94D51088232CF481E091
:1032100090E09E838D833FC06F81788589859A85F4
:1032200020E03FEF4FE757E40E94751018164CF569
:103230006B857C858D859E8520E030E040E251E401
:103240000E947B0FDC01CB01BC01CD010E94C000BC
:10325000DC01CB019E838D830FC088EC90E09C83C2
:103260008B838B819C810197F1F79C838B838D816C
:103270009E8101979E838D838D819E81009769F742
:1032800014C06F81788589859A850E94C000DC0111
:10329000CB019E838D838D819E819A8389838981D1
:1032A0009A810197F1F79A8389836D960FB6F89406
:1032B000DEBF0FBECDBFCF91DF910895DF93CF93D7
:1032C000CDB7DEB76D970FB6F894DEBF0FBECDBF9A
:1032D0008D8F82E065E041E00E94011481E06D8DF8
:1032E0000E94BE1582E067E041E00E94011480E088
:1032F00090E0A0E8BFE3898F9A8FAB8FBC8F698D78
:103300007A8D8B8D9C8D20E030E04AEF54E40E9452
:103310007B0FDC01CB018D8B9E8BAF8BB88F6D89C2
:103320007E898F89988D20E030E040E85FE30E943D
:10333000D51088232CF481E090E09C8B8B8B3FC0D0
:103340006D897E898F89988D20E03FEF4FE757E4A4
:103350000E94751018164CF5698D7A8D8B8D9C8D99
:1033600020E030E040E251E40E947B0FDC01CB0121
:10337000BC01CD010E94C000DC01CB019C8B8B8B7A
:103380000FC088EC90E09A8B898B89899A89019784
:10339000F1F79A8B898B8B899C8901979C8B8B8BFE
:1033A0008B899C89009769F714C06D897E898F8904
:1033B000988D0E94C000DC01CB019C8B8B8B8B898C
:1033C0009C89988B8F878F8598890197F1F7988BC7
:1033D0008F8782E067E040E00E94011480E090E087
:1033E000A0E8BFE38B879C87AD87BE876B857C8514
:1033F0008D859E8520E030E04AEF54E40E947B0FEB
:10340000DC01CB018F839887A987BA876F81788584
:1034100089859A8520E030E040E85FE30E94D5107E
:1034200088232CF481E090E09E838D833FC06F81E0
:10343000788589859A8520E03FEF4FE757E40E9421
:10344000751018164CF56B857C858D859E8520E062
:1034500030E040E251E40E947B0FDC01CB01BC0173
:10346000CD010E94C000DC01CB019E838D830FC083
:1034700088EC90E09C838B838B819C810197F1F792
:103480009C838B838D819E8101979E838D838D810B
:103490009E81009769F714C06F81788589859A8528
:1034A0000E94C000DC01CB019E838D838D819E81B3
:1034B0009A83898389819A810197F1F79A83898315
:1034C0006D960FB6F894DEBF0FBECDBFCF91DF91E2
:1034D00008950F931F93DF93CF9300D000D0CDB703
:1034E000DEB79C838B831A8219820FC029813A81AF
:1034F0008B819C81FC01E20FF31F80810E945E1989
:1035000089819A8101969A83898309811A818B81A5
:103510009C810E94A2350817190740F30F900F9065
:103520000F900F90CF91DF911F910F910895DF932E
:10353000CF9300D000D0CDB7DEB789836A8389816D
:10354000815089838A8181508A838981282F30E044
:103550003C832B838B819C81009731F02B813C81B4
:103560002130310531F009C08A8180580E945318FA
:1035700004C08A8180540E9453180F900F900F90BE
:103580000F90CF91DF910895AF92BF92CF92DF92CB
:10359000EF92FF920F931F93DF93CF93CDB7DEB7D8
:1035A000C656D0400FB6F894DEBF0FBECDBF2987F8
:1035B0003A874B875C876D877E878F87988B81E002
:1035C00089831A821B821C821D821E821F8218869A
:1035D0005EC329813A814B815C816D817E818F81BF
:1035E0009885A22EB32EC42ED52EE62EF72E082FA8
:1035F000192F2A2D3B2D4C2D5D2D6E2D7F2D802FCB
:10360000912F01E00E94410029A33AA34BA35CA3A0
:103610006DA37EA38FA398A729A13AA14BA15CA17A
:103620006DA17EA18FA198A502E00E94410029A76B
:103630003AA74BA75CA76DA77EA78FA798AB89A1D8
:1036400099A5890F89AB81E089AF99A989A19817BC
:1036500008F019AE9AA18AA5980F9AAB91E09AAF9B
:103660008AA99AA1891708F01AAE89AD9AA9890F7B
:103670008BAF81E08CAF9BAD8AA9981708F01CAE88
:103680009AAD8CAD982B9AAF9BAD9AAB8BA19BA5B5
:10369000890F8BAB81E08DAF9BA98BA1981708F0A8
:1036A0001DAE9AAD8BA9980F9EAF91E09FAF8EADE6
:1036B0009BA9891708F01FAE8DAD9FAD892B8DAFEB
:1036C0008EAD8BAB9CA18CA5980F9CAB91E0219605
:1036D0009FAF21978CA99CA1891718F021961FAE46
:1036E00021978DAD9CA9890F22968FAF229781E0FB
:1036F00023968FAF239722969FAD22978CA9981778
:1037000018F023961FAE239721969FAD21972396FD
:103710008FAD2397982B21969FAF219722969FAD2F
:1037200022979CAB8DA19DA5890F8DAB81E024963E
:103730008FAF24979DA98DA1981718F024961FAEDE
:10374000249721969FAD21978DA9980F25969FAF1D
:10375000259791E026969FAF269725968FAD2597C2
:103760009DA9891718F026961FAE269724968FAD2F
:10377000249726969FAD2697892B24968FAF249762
:1037800025968FAD25978DAB9EA18EA5980F9EABEC
:1037900091E027969FAF27978EA99EA1891718F0D1
:1037A00027961FAE279724968FAD24979EA9890F41
:1037B00028968FAF289781E029968FAF2997289672
:1037C0009FAD28978EA9981718F029961FAE2997B4
:1037D00027969FAD279729968FAD2997982B2796E7
:1037E0009FAF279728969FAD28979EAB8FA19FA547
:1037F000890F8FAB81E02A968FAF2A979FA98FA15F
:10380000981718F02A961FAE2A9727969FAD2797EC
:103810008FA9980F2B969FAF2B9791E02C969FAF77
:103820002C972B968FAD2B979FA9891718F02C9664
:103830001FAE2C972A968FAD2A972C969FAD2C976A
:10384000892B2A968FAF2A972B968FAD2B978FAB0C
:1038500098A588A9980F98AF2A968FAD2A9798AD0A
:10386000890F88AF89A9898F9AA99A8F8BA98B8F85
:103870009CA99C8F8DA98D8F9EA99E8F8FA98F8FBC
:1038800098AD98A3A984BA84CB84DC84ED84FE84AB
:103890000F8518892A2D3B2D4C2D5D2D6E2D7F2DEA
:1038A000802F912F0F2EFAE0AF2EF02DBB24CC24C9
:1038B000DD24EE24FF2400E010E00E946107A22E28
:1038C000B32EC42ED52EE62EF72E082F192FA98A37
:1038D000BA8ACB8ADC8AED8AFE8A0F8B188F898D93
:1038E0009989890F2D968FAF2D9781E065968FAFBF
:1038F00065972D969FAD2D97898D981718F0659631
:103900001FAE65979A8D8A89980F2E969FAF2E9736
:1039100091E066969FAF66972E968FAD2E979A8D03
:10392000891718F066961FAE669765968FAD6597F6
:103930002E969FAD2E97890F67968FAF679781E080
:1039400068968FAF689767969FAD67972E968FADF5
:103950002E97981718F068961FAE689766969FADD9
:10396000669768968FAD6897982B66969FAF669717
:1039700067969FAD67972E969FAF2E978B8D9B89ED
:10398000890F2F968FAF2F9781E069968FAF699738
:103990002F969FAD2F978B8D981718F069961FAEB5
:1039A000699766969FAD66972F968FAD2F97980F64
:1039B0006A969FAF6A9791E06B969FAF6B976A96F6
:1039C0008FAD6A972F969FAD2F97891718F06B963A
:1039D0001FAE6B9769968FAD69976B969FAD6B978E
:1039E000892B69968FAF69976A968FAD6A972F96E4
:1039F0008FAF2F979C8D8C89980F60969FAF6097A3
:103A000091E06C969FAF6C9760968FAD60979C8DA0
:103A1000891718F06C961FAE6C9769968FAD6997F1
:103A200060969FAD6097890F6D968FAF6D9781E01F
:103A30006E968FAF6E976D969FAD6D9760968FADBA
:103A40006097981718F06E961FAE6E976C969FADA4
:103A50006C976E968FAD6E97982B6C969FAF6C9708
:103A60006D969FAD6D9760969FAF60978D8D9D8988
:103A7000890F61968FAF619781E06F968FAF6F97D7
:103A800061969FAD61978D8D981718F06F961FAE58
:103A90006F976C969FAD6C9761968FAD6197980FFD
:103AA000A0969FAFA09791E0A1969FAFA197A096F7
:103AB0008FADA09761969FAD6197891718F0A19679
:103AC0001FAEA1976F968FAD6F97A1969FADA197EF
:103AD000892B6F968FAF6F97A0968FADA097619649
:103AE0008FAF61979E8D8E89980F62969FAF629778
:103AF00091E0A2969FAFA29762968FAD62979E8D3E
:103B0000891718F0A2961FAEA2976F968FAD6F9788
:103B100062969FAD6297890FA3968FAFA39781E0BE
:103B2000A4968FAFA497A3969FADA39762968FADEF
:103B30006297981718F0A4961FAEA497A2969FAD0F
:103B4000A297A4968FADA497982BA2969FAFA29709
:103B5000A3969FADA39762969FAF62978F8D9F8923
:103B6000890F63968FAF639781E0A5968FAFA59776
:103B700063969FAD63978F8D981718F0A5961FAE2B
:103B8000A597A2969FADA29763968FAD6397980F66
:103B9000A6969FAFA69791E0A7969FAFA797A696E8
:103BA0008FADA69763969FAD6397891718F0A79678
:103BB0001FAEA797A5968FADA597A7969FADA79780
:103BC000892BA5968FAFA597A6968FADA6976396DE
:103BD0008FAF639798A1888D980F64969FAF649775
:103BE000A5968FADA59764969FAD6497890F64964F
:103BF0008FAF64972D968FAD2D9789832E969FADAD
:103C00002E979A832F968FAD2F978B8360969FADBB
:103C100060979C8361968FAD61978D8362969FAD0F
:103C200062979E8363968FAD63978F8364969FADF3
:103C300064979887A984BA84CB84DC84ED84FE845D
:103C40000F8518892A2D3B2D4C2D5D2D6E2D7F2D36
:103C5000802F912F0F2EFAE0AF2EF02DBB24CC2415
:103C6000DD24EE24FF2400E010E00E94EC00A22EF0
:103C7000B32EC42ED52EE62EF72E082F192FA98687
:103C8000BA86CB86DC86ED86FE860F87188B898503
:103C90009A85892B9B85892B9C85892B9D85892BD2
:103CA0009E85892B9F85892B9889892B882309F0EC
:103CB00090CC5EC0A980BA80CB80DC80ED80FE8095
:103CC0000F8118852A2D3B2D4C2D5D2D6E2D7F2DBE
:103CD000802F912F0F2EFAE0AF2EF02DBB24CC2495
:103CE000DD24EE24FF2400E010E00E946107A22EF4
:103CF000B32EC42ED52EE62EF72E082F192F2A2DDF
:103D00003B2D4C2D5D2D6E2D7F2D802F912F822FE1
:103D1000805D0E945E19A980BA80CB80DC80ED8036
:103D2000FE800F8118852A2D3B2D4C2D5D2D6E2D8B
:103D30007F2D802F912F0F2EFAE0AF2EF02DBB2478
:103D4000CC24DD24EE24FF2400E010E00E94EC00EF
:103D5000A22EB32EC42ED52EE62EF72E082F192F05
:103D6000A982BA82CB82DC82ED82FE820F83188721
:103D70008885882309F09ECF8885882371F58F81F7
:103D8000882309F097CF8F81882339F58E81882386
:103D900009F090CF8E81882301F58D81882309F069
:103DA00089CF8D818823C9F48C81882309F082CF43
:103DB0008C81882391F48B81882309F07BCF8B81C0
:103DC000882359F48A81882309F074CF8A81882353
:103DD00021F48981823008F06DCFCA59DF4F0FB6C8
:103DE000F894DEBF0FBECDBFCF91DF911F910F9131
:103DF000FF90EF90DF90CF90BF90AF900895DF934A
:103E0000CF9300D00F92CDB7DEB78A8387E0898346
:103E10001DC08A81282F30E08981992787FD9095E0
:103E2000A90102C0559547958A95E2F7CA018170AC
:103E30009070882319F051E35B8302C080E38B8389
:103E40008B810E945E1989818150898389818823B1
:103E500004F70F900F900F90CF91DF910895DF93AB
:103E6000CF9300D00F92CDB7DEB78B831A82198221
:103E700080E690E00E94691A8B8182958F708A8318
:103E80008B818F7089838A818A3028F48A81805D52
:103E90000E945E1904C08A81895C0E945E19898132
:103EA0008A3028F48981805D0E945E1904C08A816D
:103EB000895C0E945E190F900F900F90CF91DF9157
:103EC0000895DF93CF9300D0CDB7DEB78A8380E427
:103ED0000E94531819820CC08981882F90E0FC0140
:103EE000E558FE4F80810E945E1989818F5F89832A
:103EF0008981883088F380E80E9453188A810E9463
:103F00005E190F900F90CF91DF910895DF93CF93BB
:103F1000CDB7DEB781E00E945318CF91DF910895AD
:103F2000AF92BF92CF92DF92EF92FF920F931F93C7
:103F3000DF93CF93CDB7DEB7CE54D1400FB6F89410
:103F4000DEBF0FBECDBF1A8E1B8E1C8E1D8E1E8E29
:103F50001F8E18A219A21A8A1B8A1C8A1D8A1E8A01
:103F60001F8A188E198E1A861B861C861D861E8631
:103F70001F86188A198A80E289870E9442170E9448
:103F80007E160E94E116282F30E040E050E060E00D
:103F900070E080E090E029833A834B835C836D83FB
:103FA0007E838F83988789818A37A9F48A818823C1
:103FB00091F48B81882379F48C81882361F48D813D
:103FC000882349F48E81882331F48F81882319F462
:103FD00088858823B1F289810E945E1988858823AB
:103FE000D1F58885882311F00C941C318F818823AA
:103FF00091F58F81882311F00C941C318E818823D8
:1040000051F58E81882311F00C941C318D81882309
:1040100011F58D81882311F00C941C318C8188233B
:10402000D1F48C81882311F00C941C318B8188236E
:1040300091F48B81882311F00C941C318A818823A0
:1040400051F48A81882311F00C941C3189818033CA
:1040500010F40C941C318885882311F00C941C31C9
:1040600088858823A9F58F81882311F00C941C3151
:104070008F81882369F58E81882311F00C941C317F
:104080008E81882329F58D81882311F00C941C31B1
:104090008D818823E9F48C81882311F00C941C31E4
:1040A0008C818823A9F48B81882311F00C941C3116
:1040B0008B81882369F48A81882311F00C941C3148
:1040C0008A81882329F489818A3310F00C941C3169
:1040D0008985803209F07BC72A8D3B8D4C8D5D8DA3
:1040E0006E8D7F8D88A199A1A22EB32EC42ED52EC0
:1040F000E62EF72E082F192F2A2D3B2D4C2D5D2D46
:104100006E2D7F2D802F912F01E00E94410023967C
:104110002FAF239724963FAF249725964FAF25972F
:1041200026965FAF269727966FAF279728967FAF83
:10413000289729968FAF29972A969FAF2A9723967B
:104140002FAD239724963FAD249725964FAD259705
:1041500026965FAD269727966FAD279728967FAD59
:10416000289729968FAD29972A969FAD2A9702E026
:104170000E9441002B962FAF2B972C963FAF2C9788
:104180002D964FAF2D972E965FAF2E972F966FAF30
:104190002F9760967FAF609761968FAF6197629619
:1041A0009FAF629723968FAD23972B969FAD2B974A
:1041B000890F63968FAF639781E06B968FAF6B9794
:1041C00063969FAD639723968FAD2397981718F04A
:1041D0006B961FAE6B9724969FAD24972C968FAD50
:1041E0002C97980F64969FAF649791E06C969FAF61
:1041F0006C9764968FAD649724969FAD249789172A
:1042000018F06C961FAE6C976B968FAD6B9764969B
:104210009FAD6497890F6D968FAF6D9781E06E9615
:104220008FAF6E976D969FAD6D9764968FAD6497C7
:10423000981718F06E961FAE6E976C969FAD6C97A0
:104240006E968FAD6E97982B6C969FAF6C976D9610
:104250009FAD6D9764969FAF649725968FAD259718
:104260002D969FAD2D97890F65968FAF659781E04D
:104270006F968FAF6F9765969FAD659725968FADBB
:104280002597981718F06F961FAE6F976C969FAD95
:104290006C9765968FAD6597980FA0969FAFA09786
:1042A00091E0A1969FAFA197A0968FADA09765963C
:1042B0009FAD6597891718F0A1961FAEA1976F96CD
:1042C0008FAD6F97A1969FADA197892B6F968FAFFA
:1042D0006F97A0968FADA09765968FAF659726963E
:1042E0009FAD26972E968FAD2E97980F66969FAF0F
:1042F000669791E0A2969FAFA29766968FAD66975C
:1043000026969FAD2697891718F0A2961FAEA29702
:104310006F968FAD6F9766969FAD6697890FA39640
:104320008FAFA39781E0A4968FAFA497A3969FAD7C
:10433000A39766968FAD6697981718F0A4961FAE50
:10434000A497A2969FADA297A4968FADA497982B01
:10435000A2969FAFA297A3969FADA39766969FAF95
:10436000669727968FAD27972F969FAD2F97890F2A
:1043700067968FAF679781E0A5968FAFA5976796F1
:104380009FAD679727968FAD2797981718F0A5963A
:104390001FAEA597A2969FADA29767968FAD679720
:1043A000980FA6969FAFA69791E0A7969FAFA79765
:1043B000A6968FADA69767969FAD6797891718F059
:1043C000A7961FAEA797A5968FADA597A7969FAD69
:1043D000A797892BA5968FAFA597A6968FADA69781
:1043E00067968FAF679728969FAD289760968FAD99
:1043F0006097980F68969FAF689791E0A8969FAFD7
:10440000A89768968FAD689728969FAD28978917CB
:1044100018F0A8961FAEA897A5968FADA597689699
:104420009FAD6897890FA9968FAFA99781E0AA964B
:104430008FAFAA97A9969FADA99768968FAD6897F9
:10444000981718F0AA961FAEAA97A8969FADA8979E
:10445000AA968FADAA97982BA8969FAFA897A996D2
:104460009FADA99768969FAF689729968FAD2997BA
:1044700061969FAD6197890F69968FAF699781E0CB
:10448000AB968FAFAB9769969FAD699729968FAD25
:104490002997981718F0AB961FAEAB97A8969FADCB
:1044A000A89769968FAD6997980FAC969FAFAC9718
:1044B00091E0AD969FAFAD97AC968FADAC976996F6
:1044C0009FAD6997891718F0AD961FAEAD97AB9663
:1044D0008FADAB97AD969FADAD97892BAB968FAF58
:1044E000AB97AC968FADAC9769968FAF69972A96CC
:1044F0009FAD2A9762968FAD6297980F6A969FAF8D
:104500006A97AB968FADAB976A969FAD6A97890F06
:104510006A968FAF6A9763968FAD63978AAF6496FA
:104520009FAD64979BAF65968FAD65978CAF669690
:104530009FAD66979DAF67968FAD67978EAF689674
:104540009FAD68979FAF69968FAD699721968FAFA2
:1045500021976A969FAD6A9722969FAF229789818D
:10456000AE968FAFAE979A81AF969FAFAF978B8184
:10457000E0968FAFE0979C81E1969FAFE1978D81A8
:10458000E2968FAFE2979E81E3969FAFE3978F818C
:10459000E4968FAFE4979885E5969FAFE5978AAD4F
:1045A000AE969FADAE97890FE6968FAFE69781E006
:1045B000EE968FAFEE97E6969FADE6978AAD981789
:1045C00018F0EE961FAEEE979BADAF968FADAF97FE
:1045D000980FE7969FAFE79791E0EF969FAFEF9721
:1045E000E7968FADE7979BAD891718F0EF961FAE52
:1045F000EF97EE968FADEE97E7969FADE797890F11
:10460000C158DF4F8883CF57D04081E0C058DF4F7B
:104610008883C058D040C158DF4F9881CF57D040D1
:10462000E7968FADE797981728F0C058DF4F1882AC
:10463000C058D040EF969FADEF97C058DF4F8881AC
:10464000C058D040982BEF969FAFEF97C158DF4FDF
:104650009881CF57D040E7969FAFE7978CADE09613
:104660009FADE097890FE8968FAFE89781E0CF572D
:10467000DF4F8883C158D040E8969FADE8978CAD56
:10468000981728F0CF57DF4F1882C158D040EF96C7
:104690009FADEF97E8968FADE897980FCE57DF4F15
:1046A0009883C258D04091E0CD57DF4F9883C358CC
:1046B000D040CE57DF4F8881C258D040E8969FAD9A
:1046C000E897891728F0CD57DF4F1882C358D0409C
:1046D000CF57DF4F8881C158D040CD57DF4F9881E9
:1046E000C358D040892BCF57DF4F8883C158D04063
:1046F000CE57DF4F8881C258D040E8968FAFE897F9
:104700009DADE1968FADE197980FE9969FAFE99740
:1047100091E0CC57DF4F9883C458D040E9968FADD5
:10472000E9979DAD891728F0CC57DF4F1882C45800
:10473000D040CF57DF4F8881C158D040E9969FAD18
:10474000E997890FCB57DF4F8883C558D04081E068
:10475000CA57DF4F8883C658D040CB57DF4F988168
:10476000C558D040E9968FADE997981728F0CA57F9
:10477000DF4F1882C658D040CC57DF4F9881C458BD
:10478000D040CA57DF4F8881C658D040982BCC57AD
:10479000DF4F9883C458D040CB57DF4F9881C5581E
:1047A000D040E9969FAFE9978EADE2969FADE29734
:1047B000890FEA968FAFEA9781E0C957DF4F888368
:1047C000C758D040EA969FADEA978EAD981728F06B
:1047D000C957DF4F1882C758D040CC57DF4F988158
:1047E000C458D040EA968FADEA97980FC857DF4F6C
:1047F0009883C858D04091E0C757DF4F9883C95875
:10480000D040C857DF4F8881C858D040EA969FAD46
:10481000EA97891728F0C757DF4F1882C958D04048
:10482000C957DF4F8881C758D040C757DF4F98819D
:10483000C958D040892BC957DF4F8883C758D0400B
:10484000C857DF4F8881C858D040EA968FAFEA97A3
:104850009FADE3968FADE397980FEB969FAFEB97E5
:1048600091E0C657DF4F9883CA58D040EB968FAD82
:10487000EB979FAD891728F0C657DF4F1882CA58AB
:10488000D040C957DF4F8881C758D040EB969FADC5
:10489000EB97890FC557DF4F8883CB58D04081E015
:1048A000C457DF4F8883CC58D040C557DF4F98811D
:1048B000CB58D040EB968FADEB97981728F0C457A4
:1048C000DF4F1882CC58D040C657DF4F9881CA5866
:1048D000D040C457DF4F8881CC58D040982BC65762
:1048E000DF4F9883CA58D040C557DF4F9881CB58C7
:1048F000D040EB969FAFEB9721968FAD2197E49632
:104900009FADE497890FEC968FAFEC9781E0C3578A
:10491000DF4F8883CD58D040EC969FADEC97219621
:104920008FAD2197981728F0C357DF4F1882CD58C5
:10493000D040C657DF4F9881CA58D040EC968FAD13
:10494000EC97980FC257DF4F9883CE58D04091E034
:10495000C157DF4F9883CF58D040C257DF4F88816F
:10496000CE58D040EC969FADEC97891728F0C157F0
:10497000DF4F1882CF58D040C357DF4F8881CD58C2
:10498000D040C157DF4F9881CF58D040892BC357B3
:10499000DF4F8883CD58D040C257DF4F8881CE5833
:1049A000D040EC968FAFEC9722969FAD2297E5967C
:1049B0008FADE597980FED969FAFED97C357DF4FFB
:1049C0008881CD58D040ED969FADED97890FED963B
:1049D0008FAFED97E6968FADE6978AABE7969FADE2
:1049E000E7979BABE8968FADE8978CABE9969FADC8
:1049F000E9979DABEA968FADEA978EABEB969FADAC
:104A0000EB979FABEC968FADEC9788AFED969FAD93
:104A1000ED9799AF80EDC057DF4F8883C059D040E4
:104A20009FEFCF56DF4F9883C159D0408FEFCE56BE
:104A3000DF4F8883C259D0409FEFCD56DF4F988318
:104A4000C359D0408FEFCC56DF4F8883C459D04034
:104A50009FEFCB56DF4F9883C559D0408FEFCA5692
:104A6000DF4F8883C659D0409FEFC956DF4F9883E8
:104A7000C759D0408AA9C057DF4F9881C059D0404C
:104A8000890FC856DF4F8883C859D04081E0C0568F
:104A9000DF4F8883C05AD040C856DF4F9881C8592D
:104AA000D0408AA9981728F0C056DF4F1882C05A04
:104AB000D0409BA9CF56DF4F8881C159D040980F75
:104AC000C756DF4F9883C959D04091E0CF55DF4F8B
:104AD0009883C15AD040C756DF4F8881C959D0400A
:104AE0009BA9891728F0CF55DF4F1882C15AD040B3
:104AF000C056DF4F8881C05AD040C756DF4F9881DB
:104B0000C959D040890FCE55DF4F8883C25AD04053
:104B100081E0CD55DF4F8883C35AD040CE55DF4F5B
:104B20009881C25AD040C756DF4F8881C959D040BA
:104B3000981728F0CD55DF4F1882C35AD040CF5573
:104B4000DF4F9881C15AD040CD55DF4F8881C35A7D
:104B5000D040982BCF55DF4F9883C15AD040CE55C7
:104B6000DF4F9881C25AD040C756DF4F9883C9594A
:104B7000D0408CA9CE56DF4F9881C259D040890FC2
:104B8000C656DF4F8883CA59D04081E0CC55DF4FED
:104B90008883C45AD040C656DF4F9881CA59D04046
:104BA0008CA9981728F0CC55DF4F1882C45AD040F2
:104BB000CF55DF4F9881C15AD040C656DF4F88810C
:104BC000CA59D040980FCB55DF4F9883C55AD04073
:104BD00091E0CA55DF4F9883C65AD040CB55DF4F7E
:104BE0008881C55AD040C656DF4F9881CA59D040F7
:104BF000891728F0CA55DF4F1882C65AD040CC55C5
:104C0000DF4F8881C45AD040CA55DF4F9881C65AB9
:104C1000D040892BCC55DF4F8883C45AD040CB5528
:104C2000DF4F8881C55AD040C656DF4F8883CA59A6
:104C3000D0409DA9CD56DF4F8881C359D040980FF1
:104C4000C556DF4F9883CB59D04091E0C955DF4F0F
:104C50009883C75AD040C556DF4F8881CB59D04082
:104C60009DA9891728F0C955DF4F1882C75AD0402F
:104C7000CC55DF4F8881C45AD040C556DF4F98814C
:104C8000CB59D040890FC855DF4F8883C85AD040D0
:104C900081E0C755DF4F8883C95AD040C855DF4FE0
:104CA0009881C85AD040C556DF4F8881CB59D04033
:104CB000981728F0C755DF4F1882C95AD040C955F8
:104CC000DF4F9881C75AD040C755DF4F8881C95AF6
:104CD000D040982BC955DF4F9883C75AD040C8554C
:104CE000DF4F9881C85AD040C556DF4F9883CB59C3
:104CF000D0408EA9CC56DF4F9881C459D040890F3F
:104D0000C456DF4F8883CC59D04081E0C655DF4F71
:104D10008883CA5AD040C456DF4F9881CC59D040BE
:104D20008EA9981728F0C655DF4F1882CA5AD0406E
:104D3000C955DF4F9881C75AD040C456DF4F88818C
:104D4000CC59D040980FC555DF4F9883CB5AD040EF
:104D500091E0C455DF4F9883CC5AD040C555DF4F02
:104D60008881CB5AD040C456DF4F9881CC59D0406F
:104D7000891728F0C455DF4F1882CC5AD040C65549
:104D8000DF4F8881CA5AD040C455DF4F9881CC5A32
:104D9000D040892BC655DF4F8883CA5AD040C555AD
:104DA000DF4F8881CB5AD040C456DF4F8883CC591F
:104DB000D0409FA9CB56DF4F8881C559D040980F6E
:104DC000C356DF4F9883CD59D04091E0C355DF4F94
:104DD0009883CD5AD040C356DF4F8881CD59D040FB
:104DE0009FA9891728F0C355DF4F1882CD5AD040AC
:104DF000C655DF4F8881CA5AD040C356DF4F9881CD
:104E0000CD59D040890FC255DF4F8883CE5AD0404C
:104E100081E0C155DF4F8883CF5AD040C255DF4F64
:104E20009881CE5AD040C356DF4F8881CD59D040AB
:104E3000981728F0C155DF4F1882CF5AD040C3557C
:104E4000DF4F9881CD5AD040C155DF4F8881CF5A6E
:104E5000D040982BC355DF4F9883CD5AD040C255D0
:104E6000DF4F9881CE5AD040C356DF4F9883CD593B
:104E7000D04088ADCA56DF4F9881C659D040890FBF
:104E8000C256DF4F8883CE59D04081E0C055DF4FF6
:104E90008883C05BD040C256DF4F9881CE59D04046
:104EA00088AD981728F0C055DF4F1882C05BD040FE
:104EB000C355DF4F9881CD5AD040C256DF4F88810D
:104EC000CE59D040980FCF54DF4F9883C15BD0406C
:104ED00091E0CE54DF4F9883C25BD040CF54DF4F78
:104EE0008881C15BD040C256DF4F9881CE59D040F7
:104EF000891728F0CE54DF4F1882C25BD040C055CE
:104F0000DF4F8881C05BD040CE54DF4F9881C25BB9
:104F1000D040892BC055DF4F8883C05BD040CF5431
:104F2000DF4F8881C15BD040C256DF4F8883CE59A6
:104F3000D04099ADC956DF4F8881C759D040980FEE
:104F4000C156DF4F9883CF59D040C055DF4F88817D
:104F5000C05BD040C156DF4F9881CF59D040890FF8
:104F6000C156DF4F8883CF59D040C856DF4F888164
:104F7000C859D0408A8FC756DF4F9881C959D04051
:104F80009B8FC656DF4F8881CA59D0408C8FC5563B
:104F9000DF4F9881CB59D0409D8FC456DF4F888119
:104FA000CC59D0408E8FC356DF4F9881CD59D04019
:104FB0009F8FC256DF4F8881CE59D04088A3C156FB
:104FC000DF4F9881CF59D04099A30C94C11F2A89F3
:104FD0003B894C895D896E897F89888D998DA22E48
:104FE000B32EC42ED52EE62EF72E082F192F2A2DDC
:104FF0003B2D4C2D5D2D6E2D7F2D802F912F01E0AF
:105000000E944100CD54DF4F2883C35BD040CC5475
:10501000DF4F3883C45BD040CB54DF4F4883C55B40
:10502000D040CA54DF4F5883C65BD040C954DF4FCD
:105030006883C75BD040C854DF4F7883C85BD040DB
:10504000C754DF4F8883C95BD040C654DF4F988375
:10505000CA5BD040CD54DF4F2881C35BD040CC54D5
:10506000DF4F3881C45BD040CB54DF4F4881C55BF4
:10507000D040CA54DF4F5881C65BD040C954DF4F7F
:105080006881C75BD040C854DF4F7881C85BD0408F
:10509000C754DF4F8881C95BD040C654DF4F988129
:1050A000CA5BD04002E00E944100C554DF4F288314
:1050B000CB5BD040C454DF4F3883CC5BD040C3546B
:1050C000DF4F4883CD5BD040C254DF4F5883CE5B67
:1050D000D040C154DF4F6883CF5BD040C054DF4F16
:1050E0007883C05CD040CF53DF4F8883C15CD04011
:1050F000CE53DF4F9883C25CD040CD54DF4F8881C0
:10510000C35BD040C554DF4F9881CB5BD040890F43
:10511000CD53DF4F8883C35CD04081E0C553DF4F60
:105120008883CB5CD040CD53DF4F9881C35CD040A7
:10513000CD54DF4F8881C35BD040981728F0C5530A
:10514000DF4F1882CB5CD040CC54DF4F9881C45BDA
:10515000D040C454DF4F8881CC5BD040980FCC53F3
:10516000DF4F9883C45CD04091E0C453DF4F9883F5
:10517000CC5CD040CC53DF4F8881C45CD040CC5451
:10518000DF4F9881C45BD040891728F0C453DF4FAC
:105190001882CC5CD040C553DF4F8881CB5CD040B7
:1051A000CC53DF4F9881C45CD040890FC353DF4F8D
:1051B0008883CD5CD04081E0C253DF4F8883CE5CD2
:1051C000D040C353DF4F9881CD5CD040CC53DF4FEC
:1051D0008881C45CD040981728F0C253DF4F1882F2
:1051E000CE5CD040C453DF4F9881CC5CD040C253DA
:1051F000DF4F8881CE5CD040982BC453DF4F98831B
:10520000CC5CD040C353DF4F9881CD5CD040CC53B1
:10521000DF4F9883C45CD040CB54DF4F8881C55B9F
:10522000D040C354DF4F9881CD5BD040890FCB5322
:10523000DF4F8883C55CD04081E0C153DF4F888356
:10524000CF5CD040CB53DF4F9881C55CD040CB546E
:10525000DF4F8881C55BD040981728F0C153DF4FDE
:105260001882CF5CD040C453DF4F9881CC5CD040D3
:10527000CB53DF4F8881C55CD040980FC053DF4FC0
:105280009883C05DD04091E0CF52DF4F9883C15DDD
:10529000D040C053DF4F8881C05DD040CB53DF4F3B
:1052A0009881C55CD040891728F0CF52DF4F188213
:1052B000C15DD040C153DF4F8881CF5CD040CF5219
:1052C000DF4F9881C15DD040892BC153DF4F888368
:1052D000CF5CD040C053DF4F8881C05DD040CB53FE
:1052E000DF4F8883C55CD040CA54DF4F9881C65BCE
:1052F000D040C254DF4F8881CE5BD040980FCA5354
:10530000DF4F9883C65CD04091E0CE52DF4F988348
:10531000C25DD040CA53DF4F8881C65CD040CA54BA
:10532000DF4F9881C65BD040891728F0CE52DF4FFF
:105330001882C25DD040C153DF4F8881CF5CD0401E
:10534000CA53DF4F9881C65CD040890FCD52DF4FE2
:105350008883C35DD04081E0CC52DF4F8883C45D39
:10536000D040CD52DF4F9881C35DD040CA53DF4F4C
:105370008881C65CD040981728F0CC52DF4F188245
:10538000C45DD040CE52DF4F9881C25DD040CC5238
:10539000DF4F8881C45DD040982BCE52DF4F988379
:1053A000C25DD040CD52DF4F9881C35DD040CA531B
:1053B000DF4F9883C65CD040C954DF4F8881C75BFC
:1053C000D040C154DF4F9881CF5BD040890FC95383
:1053D000DF4F8883C75CD04081E0CB52DF4F8883AA
:1053E000C55DD040C953DF4F9881C75CD040C954D8
:1053F000DF4F8881C75BD040981728F0CB52DF4F32
:105400001882C55DD040CE52DF4F9881C25DD0403A
:10541000C953DF4F8881C75CD040980FCA52DF4F15
:105420009883C65DD04091E0C952DF4F9883C75D35
:10543000D040CA52DF4F8881C65DD040C953DF4F8C
:105440009881C75CD040891728F0C952DF4F188275
:10545000C75DD040CB52DF4F8881C55DD040C95277
:10546000DF4F9881C75DD040892BCB52DF4F8883B7
:10547000C55DD040CA52DF4F8881C65DD040C95358
:10548000DF4F8883C75CD040C854DF4F9881C85B2A
:10549000D040C054DF4F8881C05CD040980FC853C3
:1054A000DF4F9883C85CD04091E0C852DF4F9883AB
:1054B000C85DD040C853DF4F8881C85CD040C85415
:1054C000DF4F9881C85BD040891728F0C852DF4F62
:1054D0001882C85DD040CB52DF4F8881C55DD04077
:1054E000C853DF4F9881C85CD040890FC752DF4F47
:1054F0008883C95DD04081E0C652DF4F8883CA5D92
:10550000D040C752DF4F9881C95DD040C853DF4FAC
:105510008881C85CD040981728F0C652DF4F1882A7
:10552000CA5DD040C852DF4F9881C85DD040C65296
:10553000DF4F8881CA5DD040982BC852DF4F9883D7
:10554000C85DD040C752DF4F9881C95DD040C85375
:10555000DF4F9883C85CD040C754DF4F8881C95B58
:10556000D040CF53DF4F9881C15CD040890FC753E3
:10557000DF4F8883C95CD04081E0C552DF4F88830C
:10558000CB5DD040C753DF4F9881C95CD040C75432
:10559000DF4F8881C95BD040981728F0C552DF4F94
:1055A0001882CB5DD040C852DF4F9881C85DD04093
:1055B000C753DF4F8881C95CD040980FC452DF4F7A
:1055C0009883CC5DD04091E0C352DF4F9883CD5D8E
:1055D000D040C452DF4F8881CC5DD040C753DF4FED
:1055E0009881C95CD040891728F0C352DF4F1882D8
:1055F000CD5DD040C552DF4F8881CB5DD040C352D6
:10560000DF4F9881CD5DD040892BC552DF4F888315
:10561000CB5DD040C452DF4F8881CC5DD040C753B2
:10562000DF4F8883C95CD040C654DF4F9881CA5B86
:10563000D040CE53DF4F8881C25CD040980FC65314
:10564000DF4F9883CA5CD040C552DF4F8881CB5D65
:10565000D040C653DF4F9881CA5CD040890FC653F3
:10566000DF4F8883CA5CD040CD53DF4F8881C35C55
:10567000D0408AA7CC53DF4F9881C45CD0409BA711
:10568000CB53DF4F8881C55CD0408CA7CA53DF4F16
:105690009881C65CD0409DA7C953DF4F8881C75C05
:1056A000D0408EA7C853DF4F9881C85CD0409FA7D9
:1056B000C753DF4F8881C95CD04088ABC653DF4FEA
:1056C0009881CA5CD04099AB8981C252DF4F8883F0
:1056D000CE5DD0409A81C152DF4F9883CF5DD040DC
:1056E0008B81C052DF4F8883C05ED0409C81CF51F8
:1056F000DF4F9883C15ED0408D81CE51DF4F8883CC
:10570000C25ED0409E81CD51DF4F9883C35ED040B2
:105710008F81CC51DF4F8883C45ED0409885CB51B8
:10572000DF4F9883C55ED0408AA5C252DF4F988173
:10573000CE5DD040890FCA51DF4F8883C65ED0400E
:1057400081E0C251DF4F8883CE5ED040CA51DF4F27
:105750009881C65ED0408AA5981728F0C251DF4FC5
:105760001882CE5ED0409BA5C152DF4F8881CF5DAD
:10577000D040980FC951DF4F9883C75ED04091E069
:10578000C151DF4F9883CF5ED040C951DF4F888130
:10579000C75ED0409BA5891728F0C151DF4F188202
:1057A000CF5ED040C251DF4F8881CE5ED040C9511C
:1057B000DF4F9881C75ED040890FC051DF4F88838B
:1057C000C05FD04081E0CF50DF4F8883C15FD040C1
:1057D000C051DF4F9881C05FD040C951DF4F8881F1
:1057E000C75ED040981728F0CF50DF4F1882C15FB6
:1057F000D040C151DF4F9881CF5ED040CF50DF4FB6
:105800008881C15FD040982BC151DF4F9883CF5E14
:10581000D040C051DF4F9881C05FD040C951DF4FA9
:105820009883C75ED0408CA5C052DF4F9881C05E80
:10583000D040890FC851DF4F8883C85ED04081E0D7
:10584000CE50DF4F8883C25FD040C851DF4F988170
:10585000C85ED0408CA5981728F0CE50DF4F188234
:10586000C25FD040C151DF4F9881CF5ED040C85158
:10587000DF4F8881C85ED040980FCD50DF4F9883AE
:10588000C35FD04091E0CC50DF4F9883C45FD040DD
:10589000CD50DF4F8881C35FD040C851DF4F988122
:1058A000C85ED040891728F0CC50DF4F1882C45F03
:1058B000D040CE50DF4F8881C25FD040CC50DF4F08
:1058C0009881C45FD040892BCE50DF4F8883C25F60
:1058D000D040CD50DF4F8881C35FD040C851DF4FEB
:1058E0008883C85ED0409DA5CF51DF4F8881C15EBF
:1058F000D040980FC751DF4F9883C95ED04091E0E8
:10590000CB50DF4F9883C55FD040C751DF4F8881B0
:10591000C95ED0409DA5891728F0CB50DF4F188273
:10592000C55FD040CE50DF4F8881C25FD040C751A5
:10593000DF4F9881C95ED040890FCA50DF4F8883FE
:10594000C65FD04081E0C950DF4F8883C75FD04039
:10595000CA50DF4F9881C65FD040C751DF4F888162
:10596000C95ED040981728F0C950DF4F1882C75F32
:10597000D040CB50DF4F9881C55FD040C950DF4F3A
:105980008881C75FD040982BCB50DF4F9883C55F8D
:10599000D040CA50DF4F9881C65FD040C751DF4F1B
:1059A0009883C95ED0408EA5CE51DF4F9881C25EEC
:1059B000D040890FC651DF4F8883CA5ED04081E056
:1059C000C850DF4F8883C85FD040C651DF4F9881F1
:1059D000CA5ED0408EA5981728F0C850DF4F1882B5
:1059E000C85FD040CB50DF4F9881C55FD040C651D3
:1059F000DF4F8881CA5ED040980FC750DF4F988331
:105A0000C95FD04091E0C650DF4F9883CA5FD04055
:105A1000C750DF4F8881C95FD040C651DF4F9881A2
:105A2000CA5ED040891728F0C650DF4F1882CA5F7F
:105A3000D040C850DF4F8881C85FD040C650DF4F8C
:105A40009881CA5FD040892BC850DF4F8883C85FD8
:105A5000D040C750DF4F8881C95FD040C651DF4F6B
:105A60008883CA5ED0409FA5CD51DF4F8881C35E39
:105A7000D040980FC551DF4F9883CB5ED04091E066
:105A8000C550DF4F9883CB5FD040C551DF4F888131
:105A9000CB5ED0409FA5891728F0C550DF4F1882F4
:105AA000CB5FD040C850DF4F8881C85FD040C55120
:105AB000DF4F9881CB5ED040890FC450DF4F888381
:105AC000CC5FD04081E0C350DF4F8883CD5FD040B2
:105AD000C450DF4F9881CC5FD040C551DF4F8881E3
