:100000000C942A000C9428250C9455250C948225D8
:100010000C9447000C9447000C9447000C94470044
:100020000C9447000C9447000C9447000C94470034
:100030000C9447000C9447000C9447000C94470024
:100040000C9447000C9447000C9447000C94470014
:100050000C94470011241FBECFE5D8E0DEBFCDBF12
:1000600011E0A0E6B0E0E6E3F5E502C005900D92F0
:10007000A439B107D9F711E0A4E9B1E001C01D929C
:10008000AA39B107E1F70E9488150C94992A0C94BB
:100090000000EF92FF920F93DF93CF93CDB7DEB7BF
:1000A00060970FB6F894DEBF0FBECDBFA82F002318
:1000B00009F461C07E010894E11CF11C88E0F7019D
:1000C00011928A95E9F729833A834B835C836D8388
:1000D0007E83AF83988780E2801BE82FFF27E7FDB0
:1000E000F09549815A816B817C81181684F01986BC
:1000F0001A861B861C86882799278E1B9F0B04C097
:10010000440F551F661F771F8A95D2F728C0202FEE
:10011000332727FD3095DB01CA01022E04C0880F6A
:10012000991FAA1FBB1F0A94D2F789879A87AB87AA
:10013000BC8704C07695679557954795EA95D2F7A1
:100140008D819E81AF81B88504C0880F991FAA1F39
:10015000BB1F2A95D2F7482B592B6A2B7B2B4D8737
:100160005E876F87788B29853A854B855C856D85A1
:100170007E85AF8598898A2F60960FB6F894DEBF8A
:100180000FBECDBFCF91DF910F91FF90EF900895FB
:10019000EF92FF920F931F937B018C0120E030E0E0
:1001A00040E05FE40E94891188238CF0C801B70108
:1001B00020E030E040E05FE40E9401100E9447121E
:1001C0009B01AC01205030404040504806C0C8015F
:1001D000B7010E9447129B01AC01B901CA011F91EE
:1001E0000F91FF90EF900895A2E0B0E0EAEFF0E009
:1001F0000C94592A122FB32EA42E952E862E372E0C
:10020000282E9A83C22ED32EE42EF52EA701960116
:1002100060E070E080E090E02117A1F43B1591F4DC
:100220004A1581F4591571F4681561F4731551F488
:10023000821541F4AA819A1729F4C701B6010E94D8
:100240009B12AAC0212F3B2D4A2D592D682D732DAD
:10025000822D9A8100E20E941413C901DA018030D4
:10026000E0E09E07E1E0AE07E0E0BE0780F48F3FEC
:100270009105A105B10531F028F028E030E040E01B
:1002800050E016C020E030E040E050E011C0803087
:10029000F0E09F07F0E0AF07F1E0BF0728F028E1AA
:1002A00030E040E050E004C020E130E040E050E0C9
:1002B000022E04C0B695A795979587950A94D2F714
:1002C000FC01EE58FF4F808129013A01480E511C74
:1002D000611C711C4982212F3B2D4A2D592D682DFF
:1002E000732D822D9A81042D0E941413C901DA0105
:1002F0004C015D0180E290E08419950904C0CC0CAA
:10030000DD1CEE1CFF1C8A95D2F7C114D104E10458
:10031000F10441F081E090E0A0E0B0E0882A992A61
:10032000AA2ABB2A90E2491651046104710459F4C7
:100330000F2EF0E0EF2EF0E0FF2EF0E80F2FFFE49D
:100340001F2FF02D21C0AFE14A1651046104710442
:1003500059F40F2EF0E0EF2EF0E0FF2EF0E00F2F1B
:10036000FFE41F2FF02D10C061E070E080E090E00E
:10037000098004C0660F771F881F991F0A94D2F75F
:100380000E94E9117B018C01C501B4010E949B12FE
:10039000A80197010E945F102296E2E10C94752A51
:1003A000AEE5B0E0E6EDF1E00C94592AA8E04E018C
:1003B0000894811C911CF4016A2E11926A94E9F749
:1003C00029833A834B835C836D837E838F839887F5
:1003D000CE010996FC011192AA95E9F7A986BA8681
:1003E000CB86DC86ED86FE860F87188B29843A84BF
:1003F0004B845C84ED84FE840F85188969807A8043
:100400008B809C806DA67EA68FA698AA6D807E802C
:100410008F809884E114F1040105110509F0B3C33C
:10042000621473048404950408F03DC100E02016B2
:1004300000E0300601E0400600E0500688F41FEFBF
:10044000211631044104510439F030F048E0E42E23
:10045000F12C012D112D18C0EE24FF24870114C0AA
:1004600020E0221620E0320620E0420621E052067B
:1004700030F038E1E32EF12C012D112D05C020E1E3
:10048000E22EF12C012D112DD201C1010E2C04C040
:10049000B695A795979587950A94D2F78E589F4F52
:1004A000DC012C9180E290E0A0E0B0E08E199F0981
:1004B000A00BB10B7C018D01E21AF10801091109B1
:1004C000E114F10401051105A1F10E2C04C0220C68
:1004D000331C441C551C0A94D2F7A40193010E2C22
:1004E00004C0220F331F441F551F0A94D2F780E225
:1004F00090E08E199F096DA47EA48FA498A804C0D3
:1005000096948794779467948A95D2F7622A732A8F
:10051000842A952AADA4BEA4CFA4D8A804C0AA0C4E
:10052000BB1CCC1CDD1CEA94D2F7ADA6BEA6CFA6A0
:10053000D8AA6201EE24FF24CDAADEAAEFAAF8AE63
:10054000920181012070307009AF1AAF2BAF3CAF20
:10055000C401B301A70196010E94372A7B018C01D7
:10056000C401B3012DA93EA94FA958AD0E94372A55
:10057000C901DA013C014D01C401B30129AD3AAD15
:100580004BAD5CAD0E94E9299B01AC018701FF24C2
:10059000EE24ADA4BEA4CFA4D8A8C601AA27BB2729
:1005A00057016801A82AB92ACA2ADB2AA216B3066B
:1005B000C406D506E0F40894610871088108910822
:1005C000A20CB31CC41CD51CA214B304C404D504CF
:1005D00070F0A216B306C406D50648F40894610864
:1005E000710881089108A20CB31CC41CD51CA21A66
:1005F000B30AC40AD50AC601B5012DA93EA94FA95F
:1006000058AD0E94372A7B018C01C601B5012DA986
:100610003EA94FA958AD0E94372AC901DA015C01F1
:100620006D01C601B50129AD3AAD4BAD5CAD0E947F
:10063000E9299B01AC018701FF24EE248DA59EA52D
:10064000AFA5B8A9A070B070E82AF92A0A2B1B2B15
:10065000E216F30604071507C0F40894A108B108D0
:10066000C108D108E20CF31C041D151DE214F304AB
:100670000405150550F0E216F3060407150728F4E3
:100680000894A108B108C108D108D3019927882787
:1006900086017501E82AF92A0A2B1B2BE9AAFAAA76
:1006A0000BAB1CABCFC4211431044104510471F4D1
:1006B00061E070E080E090E020E030E040E050E079
:1006C0000E94372AC901DA011C012D0100E0201621
:1006D00000E0300601E0400600E0500688F41FEF1D
:1006E000211631044104510431F028F048E050E073
:1006F00060E070E017C040E050E060E070E012C0E1
:1007000020E0221620E0320620E0420621E05206D8
:1007100028F048E150E060E070E004C040E150E0C3
:1007200060E070E0D201C101042E04C0B695A79527
:10073000979587950A94D2F78E589F4FDC012C919C
:10074000E0E2EE2EF12C012D112DD801C701841B02
:10075000950BA60BB70B821B9109A109B109009754
:10076000A105B10561F464015301A218B308C408DE
:10077000D50831E0632E712C812C912C1EC16F960F
:100780008FAF6F97082E04C0220C331C441C551CDD
:100790000A94D2F7EE2DE81B640153010E2E04C01B
:1007A000D694C794B794A7940A94D2F7A40193015E
:1007B0006F960FAC6F9704C0220F331F441F551F55
:1007C0000A94D2F76DA47EA48FA498A80E2E04C01C
:1007D00096948794779467940A94D2F7840173016E
:1007E000E22AF32A042B152BE9A6FAA60BA71CA7CD
:1007F0003201882499249201810120703070219661
:100800000CAF1DAF2EAF3FAF2197C601B501A401BC
:1008100093010E94372A7B018C01C601B501A40116
:1008200093010E94372AC901DA0125968CAF9DAF4A
:10083000AEAFBFAF2597BC01CD0121962CAD3DAD2C
:100840004EAD5FAD21970E94E9299B01AC01870164
:10085000FF24EE24A9A4BAA4CBA4DCA4C601AA2731
:10086000BB275C016D01AE28BF28C02AD12AA21681
:10087000B306C406D50660F525966CAD7DAD8EAD8C
:100880009FAD2597615070408040904025966CAF99
:100890007DAF8EAF9FAF2597A20CB31CC41CD51C97
:1008A000A214B304C404D50498F0A216B306C40677
:1008B000D50670F4615070408040904025966CAF32
:1008C0007DAF8EAF9FAF2597A20CB31CC41CD51C67
:1008D000A21AB30AC40AD50AC601B501A40193013C
:1008E0000E94372A7B018C01C601B501A401930146
:1008F0000E94372AC901DA013C014D01C401B3014C
:1009000021962CAD3DAD4EAD5FAD21970E94E929FA
:100910009B01AC018701FF24EE2489A59AA5ABA514
:10092000BCA5A070B07057016801A82AB92ACA2ACC
:10093000DB2AA216B306C406D506E0F408946108C3
:10094000710881089108A20CB31CC41CD51CA21408
:10095000B304C404D50470F0A216B306C406D506C9
:1009600048F408946108710881089108A20CB31C2E
:10097000C41CD51C8DA59EA5AFA5B8A96F960FACBC
:100980006F9704C0880F991FAA1FBB1F0A94D2F744
:100990008DA79EA7AFA7B8ABA21AB30AC40AD50AFF
:1009A0002596ECACFDAC0EAD1FAD2597D701992770
:1009B0008827682A792A8A2A9B2A820122273327B4
:1009C00029960CAF1DAF2EAF3FAF2997A201910121
:1009D000407050702D962CAF3DAF4EAF5FAF2D974E
:1009E000C601B50129962CAD3DAD4EAD5FAD299741
:1009F0000E94372A7B018C01C601B50129962CADD6
:100A00003DAD4EAD5FAD29970E94372AC901DA018D
:100A100061968CAF9DAFAEAFBFAF6197BC01CD010A
:100A20002D962CAD3DAD4EAD5FAD2D970E94E929C1
:100A30009B01AC018701FF24EE24ADA4BEA4CFA48A
:100A4000D8A8C601AA27BB2757016801A82AB92A36
:100A5000CA2ADB2AA216B306C406D50660F561963B
:100A60006CAD7DAD8EAD9FAD6197615070408040A3
:100A7000904061966CAF7DAF8EAF9FAF6197A20C37
:100A8000B31CC41CD51CA214B304C404D50498F030
:100A9000A216B306C406D50670F4615070408040BB
:100AA000904061966CAF7DAF8EAF9FAF6197A20C07
:100AB000B31CC41CD51CA21AB30AC40AD50AC601A9
:100AC000B50129962CAD3DAD4EAD5FAD29970E9485
:100AD000372A7B018C01C601B50129962CAD3DADAD
:100AE0004EAD5FAD29970E94372AC901DA015C013A
:100AF0006D01C601B5012D962CAD3DAD4EAD5FAD7E
:100B00002D970E94E9299B01AC018701FF24EE2467
:100B10008DA59EA5AFA5B8A9A070B070E82AF92A46
:100B20000A2B1B2BE216F30604071507C0F40894E2
:100B3000A108B108C108D108E20CF31C041D151D61
:100B4000E214F3040405150550F0E216F306040759
:100B5000150728F40894A108B108C108D1086196C6
:100B6000ECACFDAC0EAD1FAD6197D701992788277E
:100B700096018501082B192B2A2B3B2B09AB1AABAD
:100B80002BAB3CAB62C26E147F048006910608F466
:100B900051C220E0E21620E0F20621E0020720E048
:100BA000120788F43FEFE316F1040105110531F057
:100BB00028F048E050E060E070E017C040E050E00E
:100BC00060E070E012C040E0E41640E0F40640E06F
:100BD000040741E0140728F048E150E060E070E0CD
:100BE00004C040E150E060E070E0D801C701042E8D
:100BF00004C0B695A795979587950A94D2F78E5815
:100C00009F4FDC012C9130E2A32EB12CC12CD12CB2
:100C1000D601C501841B950BA60BB70B821B91094E
:100C2000A109B1090097A105B10589F4E614F704FB
:100C30000805190508F4F2C16DA47EA48FA498A834
:100C4000621473048404950408F0E8C1F3C16E963D
:100C50008FAF6E97082E04C0EE0CFF1C001F111FF3
:100C60000A94D2F76A2D681BD201C101062E04C076
:100C7000B695A795979587950A94D2F75C016D0173
:100C8000AE28BF28C02AD12AADA2BEA2CFA2D8A624
:100C9000720161016E960FAC6E9704C0CC0CDD1C26
:100CA000EE1CFF1C0A94D2F7C9A2DAA2EBA2FCA2A6
:100CB00064015301062E04C0D694C794B794A79438
:100CC0000A94D2F7D401C3016E960FAC6E9704C09C
:100CD000880F991FAA1FBB1F0A94D2F7EDA4FEA488
:100CE0000FA518A904C016950795F794E7946A957F
:100CF000D2F737014801682A792A8A2A9B2A6D8E01
:100D00007E8E8F8E98A2EDA0FEA00FA118A53801AF
:100D100088249924980187012070307065960CAF63
:100D20001DAF2EAF3FAF6597C601B501A40193017A
:100D30000E94372A7B018C01C601B501A4019301F1
:100D40000E94372AC901DA011C012D01C201B1013B
:100D500065962CAD3DAD4EAD5FAD65970E94E9291E
:100D60009B01AC018701FF24EE24AD8CBE8CCF8C9F
:100D7000D8A0C601AA27BB2757016801A82AB92A0B
:100D8000CA2ADB2AA216B306C406D50600F50894C3
:100D90002108310841085108EDA0FEA00FA118A5B7
:100DA000AE0CBF1CC01ED11EAE14BF04C006D106BF
:100DB00070F0A216B306C406D50648F408942108BC
:100DC000310841085108AE0CBF1CC01ED11EA21A2A
:100DD000B30AC40AD50AC601B501A40193010E9451
:100DE000372A7B018C01C601B501A40193010E9441
:100DF000372AC901DA013C014D01C401B3016596EE
:100E00002CAD3DAD4EAD5FAD65970E94E9299B01CC
:100E1000AC018701FF24EE248D8D9E8DAF8DB8A18E
:100E2000A070B07057016801A82AB92ACA2ADB2A23
:100E3000A216B306C406D50600F508946108710829
:100E4000810891086DA17EA18FA198A5A60EB71E5D
:100E5000C81ED91EA616B706C806D90670F0A21677
:100E6000B306C406D50648F40894610871088108E1
:100E70009108A60EB71EC81ED91ED601C501821B39
:100E8000930BA40BB50B898F9A8FAB8FBC8FD101BD
:100E90009927882764015301A82AB92ACA2ADB2A7C
:100EA000A9AABAAACBAADCAA860175012FEF3FEF47
:100EB00040E050E0E222F32204231523A601662736
:100EC00077276D964CAF5DAF6EAF7FAF6D97A9A0E2
:100ED000BAA0CBA0DCA06FEF7FEF80E090E0A6226D
:100EE000B722C822D92289A19AA1ABA1BCA11D0118
:100EF00044245524C801B701A60195010E94E9299F
:100F000069966CAF7DAF8EAF9FAF6997C801B7018F
:100F1000A20191010E94E9293B014C016D966CAD43
:100F20007DAD8EAD9FAD6D97A60195010E94E9291B
:100F30007B018C016D966CAD7DAD8EAD9FAD6D97D7
:100F4000A20191010E94E9295B016C01A8019701AE
:100F5000260D371D481D591D69966CAC7DAC8EACB5
:100F60009FAC6997C401AA27BB27280F391F4A1FC6
:100F70005B1F2E153F054007510748F4E12CF12C6B
:100F800061E0062F112DAE0CBF1CC01ED11ECA0180
:100F9000AA27BB27BC01CD016A0D7B1D8C1D9D1DA1
:100FA000698C7A8C8B8C9C8C6616770688069906E1
:100FB00040F1661577058805990509F043C0D90108
:100FC0009927882769962CAD3DAD4EAD5FAD6997E9
:100FD00040705070820F931FA41FB51F2DA53EA512
:100FE0004FA558A96E960FAC6E9704C0220F331F01
:100FF000441F551F0A94D2F7281739074A075B0781
:1010000008F509A91AA92BA93CA9015010402040B4
:10101000304009AB1AAB2BAB3CAB14C06624772431
:10102000430121E030E040E050E029AB3AAB4BAB6C
:101030005CAB0BC066247724430119AA1AAA1BAA29
:101040001CAA03C0662477244301FE01719688E040
:10105000DF011D928A95E9F7A9A8BAA8CBA8DCA858
:10106000A98ABA8ACB8ADC8A6D8A7E8A8F8A988E10
:1010700029A93A894B895C89662D7E898F89988D4B
:10108000C25ADF4FE2E10C94752AABE5B0E0EBE425
:10109000F8E00C94592AA8E04E010894811C911C98
:1010A000F4016A2E11926A94E9F729833A834B83FB
:1010B0005C836D837E838F839887CE010996FC01C4
:1010C0001192AA95E9F7A986BA86CB86DC86ED86C9
:1010D000FE860F87188B29843A844B845C84AD8408
:1010E000BE84CF84D88829813A814B815C816996FE
:1010F0002FAF69976A963FAF6A976B964FAF6B9722
:101100006C965FAF6C976C966CAC7DAC8EAC9FAC04
:101110006C9769AA7AAA8BAA9CAA6D817E818F811D
:1011200098853B014C016DAA7EAA8FAA98AEA114A6
:10113000B104C104D10409F004C36214730484042B
:10114000950408F000C100E0201600E0300601E040
:10115000400600E0500688F41FEF211631044104D8
:10116000510439F030F088E0E82EF12C012D112DDA
:1011700018C0EE24FF24870114C040E0241640E08C
:10118000340640E0440641E0540630F0B8E1EB2E6E
:10119000F12C012D112D05C0A0E1EA2EF12C012D1D
:1011A000112DD201C1010E2C04C0B695A7959795BB
:1011B00087950A94D2F78E589F4FDC012C9180E2DC
:1011C00090E0A0E0B0E08E199F09A00BB10B5C018C
:1011D0006D01A21AB108C108D108A9AEBAAECBAE52
:1011E000DCAEA114B104C104D10409F43FC069AD5F
:1011F000062E04C0220C331C441C551C0A94D2F742
:10120000A4019301062E04C0220F331F441F551F53
:101210000A94D2F780E290E08A199B096C96CCACD4
:10122000DDACEEACFFAC6C9704C0F694E794D794B9
:10123000C7948A95D2F787017601E22AF32A042B14
:10124000152BEDAAFEAA0FAB18AF6C968CAD9DAD19
:10125000AEADBFAD6C9704C0880F991FAA1FBB1F0E
:101260006A95D2F789AB9AABABABBCAB32018824A1
:101270009924B201A1016070707021964CAF5DAFEE
:101280006EAF7FAF21976DA97EA98FA998ADA401FC
:1012900093010E94372A7B018C016DA97EA98FA939
:1012A00098ADA40193010E94372ACA01B901219681
:1012B0002CAD3DAD4EAD5FAD21970E94E9299B015C
:1012C000AC018701FF24EE24A9A8BAA8CBA8DCA80A
:1012D000C601AA27BB2757016801A82AB92ACA2A2A
:1012E000DB2AA216B306C406D50690F4A20CB31CE2
:1012F000C41CD51CA214B304C404D50448F0A2161F
:10130000B306C406D50620F4A20CB31CC41CD51C1D
:10131000A21AB30AC40AD50AC601B501A4019301F1
:101320000E94372A7B018C01C601B501A4019301FB
:101330000E94372ACA01B90121962CAD3DAD4EADB0
:101340005FAD2197BAC1211431044104510471F4F5
:1013500061E070E080E090E020E030E040E050E0CC
:101360000E94372AC901DA011C012D0100E0201674
:1013700000E0300601E0400600E0500688F41FEF70
:10138000211631044104510439F030F068E0E62EB2
:10139000F12C012D112D18C0EE24FF24870114C05B
:1013A00040E0241640E0340640E0440641E05406A4
:1013B00030F058E1E52EF12C012D112D05C040E152
:1013C000E42EF12C012D112DD201C1010E2C04C0EF
:1013D000B695A795979587950A94D2F78E589F4F03
:1013E000DC012C9130E2A32EB12CC12CD12CD601E2
:1013F000C5018E199F09A00BB10B7C018D01E21A6A
:10140000F10801091109E9AEFAAE0BAF1CAFE11406
:10141000F1040105110539F464015301A218B30860
:10142000C408D508E2C0F9AC6896FFAE68970F2CE7
:1014300004C0220C331C441C551C0A94D2F78A2D7C
:101440008F1964015301082E04C0D694C794B79431
:10145000A7940A94D2F7A401930104C0220F331F6A
:10146000441F551FFA94D2F76C966CAC7DAC8EACD1
:101470009FAC6C9704C096948794779467948A95F0
:10148000D2F784017301E22AF32A042B152BEDA66F
:10149000FEA60FA718AB320188249924B201A1013E
:1014A0006070707025964CAF5DAF6EAF7FAF2597C3
:1014B000C601B501A40193010E94372A7B018C016A
:1014C000C601B501A40193010E94372ACA01B901DE
:1014D00025962CAD3DAD4EAD5FAD25970E94E92917
:1014E0009B01AC018701FF24EE24ADA4BEA4CFA4D0
:1014F000D8A8C601AA27BB275C016D01AE28BF286A
:10150000C02AD12AA216B306C406D50690F4A20CAE
:10151000B31CC41CD51CA214B304C404D50448F0E5
:10152000A216B306C406D50620F4A20CB31CC41C34
:10153000D51CA21AB30AC40AD50AC601B501A40172
:1015400093010E94372A7B018C01C601B501A401D9
:1015500093010E94372ACA01B90125962CAD3DADF1
:101560004EAD5FAD25970E94E9299B01AC01870133
:10157000FF24EE248DA59EA5AFA5B8A9A070B070DC
:1015800057016801A82AB92ACA2ADB2AA216B3067B
:10159000C406D50690F4A20CB31CC41CD51CA2141E
:1015A000B304C404D50448F0A216B306C406D50695
:1015B00020F4A20CB31CC41CD51C6C96ECACFDAC86
:1015C0000EAD1FAD6C9768960FAC689704C0EE0C1B
:1015D000FF1C001F111F0A94D2F7E9AAFAAA0BAB4D
:1015E0001CABA21AB30AC40AD50A32018824992472
:1015F000B201A1016070707029964CAF5DAF6EAF03
:101600007FAF2997C601B501A40193010E94372A33
:101610007B018C01C601B501A40193010E94372A08
:10162000CA01B90129962CAD3DAD4EAD5FAD2997EC
:101630000E94E9299B01AC018701FF24EE24A9A89F
:10164000BAA8CBA8DCA8C601AA27BB275701680106
:10165000A82AB92ACA2ADB2AA216B306C406D506C6
:1016600090F4A20CB31CC41CD51CA214B304C40473
:10167000D50448F0A216B306C406D50620F4A20C81
:10168000B31CC41CD51CA21AB30AC40AD50AC601CD
:10169000B501A40193010E94372A7B018C01C60188
:1016A000B501A40193010E94372ACA01B901299604
:1016B0002CAD3DAD4EAD5FAD29970E94E9299B0150
:1016C000AC018701FF24EE2489A99AA9ABA9BCA982
:1016D000A070B070E82AF92A0A2B1B2BE216F30639
:1016E0000407150790F4E20CF31C041D151DE21409
:1016F000F3040405150548F0E216F3060407150780
:1017000020F4E20CF31C041D151DE21AF30A040B6D
:10171000150BD801C70109AC04C0B695A7959795DC
:1017200087950A94D2F7898B9A8BAB8BBC8B1D8AD9
:101730001E8A1F8A188E282F3A894B895C896D89E9
:101740000CC36A147B048C049D0408F409C300E0F4
:10175000A01600E0B00601E0C00600E0D00688F464
:101760001FEFA116B104C104D10439F030F028E014
:10177000E22EF12C012D112D18C0EE24FF2487013B
:1017800014C040E0A41640E0B40640E0C40641E0C6
:10179000D40630F098E1E92EF12C012D112D05C071
:1017A00080E1E82EF12C012D112DD601C5010E2C62
:1017B00004C0B695A795979587950A94D2F78E5849
:1017C0009F4FDC012C9180E290E0A0E0B0E08E1908
:1017D0009F09A00BB10B821B9109A109B1090097C8
:1017E000A105B10509F04FC0A614B704C804D90477
:1017F00058F06C96ECACFDAC0EAD1FAD6C97E214DE
:10180000F3040405150568F16C96ECACFDAC0EAD67
:101810001FAD6C97E218F30804091509A4019301A0
:101820002A193B094C095D09AA24BB2465016C9661
:101830006CAD7DAD8EAD9FAD6C976E157F0580074D
:10184000910728F4B1E0AB2EB12CC12CD12CDA01D8
:10185000C9018A199B09AC09BD098DAB9EABAFAB21
:10186000B8AFE98AFA8A0B8B1C8B6DA87EA88FA86B
:1018700098AC6D8A7E8A8F8A988E2E2D3A894B89F4
:101880005C896DA96AC267968FAF6797A6019501BB
:10189000082E04C0220F331F441F551F0A94D2F78D
:1018A000A0E2AA2EA81A6696AFAE6697D201C10131
:1018B00004C0B695A79597958795AA94D2F76C0121
:1018C0007D01C22AD32AE42AF52AC9A6DAA6EBA604
:1018D000FCA68201710167960FAC679704C0EE0CFD
:1018E000FF1C001F111F0A94D2F7EDA2FEA20FA346
:1018F00018A76401530166960FAC669704C0D6948E
:10190000C794B794A7940A94D2F7A4019301679659
:101910000FAC679704C0220F331F441F551F0A9452
:10192000D2F76C968CAD9DADAEADBFAD6C976696A3
:101930000FAC669704C0B695A795979587950A94BE
:10194000D2F73C014D01622A732A842A952A69A2A2
:101950007AA28BA29CA26C96ECACFDAC0EAD1FAD36
:101960006C9767960FAC679704C0EE0CFF1C001FC6
:10197000111F0A94D2F7ED8EFE8E0F8F18A349A582
:101980005AA56BA57CA53B018824992460707070D2
:101990002D964CAF5DAF6EAF7FAF2D97C601B501F1
:1019A000A40193010E94372A7B018C01C601B50175
:1019B000A40193010E94372AC901DA011C012D01FB
:1019C000C201B1012D962CAD3DAD4EAD5FAD2D9751
:1019D0000E94E9299B01AC018701FF24EE24A9A004
:1019E000BAA0CBA0DCA0C601AA27BB27570168017B
:1019F000A82AB92ACA2ADB2AA216B306C406D50623
:101A000000F508942108310841085108E9A4FAA416
:101A10000BA51CA5AE0CBF1CC01ED11EAE14BF046E
:101A2000C006D10670F0A216B306C406D50648F467
:101A300008942108310841085108AE0CBF1CC01E93
:101A4000D11EA21AB30AC40AD50AC601B501A4015F
:101A500093010E94372A7B018C01C601B501A401C4
:101A600093010E94372AC901DA013C014D01C401EA
:101A7000B3012D962CAD3DAD4EAD5FAD2D970E94BF
:101A8000E9299B01AC018701FF24EE2489A19AA1D9
:101A9000ABA1BCA1A070B07057016801A82AB92AF7
:101AA000CA2ADB2AA216B306C406D50600F5089496
:101AB000610871088108910869A57AA58BA59CA584
:101AC000A60EB71EC81ED91EA616B706C806D9068A
:101AD00070F0A216B306C406D50648F4089461084F
:101AE000710881089108A60EB71EC81ED91ED6011E
:101AF000C501821B930BA40BB50B898F9A8FAB8FFB
:101B0000BC8FD1019927882784017301E82AF92A1B
:101B10000A2B1B2B4FEFA42E4FEFB42EC12CD12C30
:101B2000AE20BF20C022D1227801002711276DA04E
:101B30007EA08FA098A44FEF5FEF60E070E064227A
:101B40007522862297228DA19EA1AFA1B8A5BD01C5
:101B50008827992765966CAF7DAF8EAF9FAF65974D
:101B6000C601B501A40193010E94E92961966CAFF9
:101B70007DAF8EAF9FAF6197C601B50165962CAD65
:101B80003DAD4EAD5FAD65970E94E9291B012C016B
:101B9000C801B701A40193010E94E9295B016C010E
:101BA000C801B70165962CAD3DAD4EAD5FAD6597F3
:101BB0000E94E9297B018C01A6019501220D331DAC
:101BC000441D551D61966CAC7DAC8EAC9FAC61978D
:101BD000C401AA27BB27280F391F4A1F5B1F2A15DC
:101BE0003B054C055D0548F4812C912CE1E0AE2EBF
:101BF000B12CE80CF91C0A1D1B1DCA01AA27BB2722
:101C000057016801A80EB91ECA1EDB1EA9013327A1
:101C1000222761968CAD9DADAEADBFAD6197A07032
:101C2000B070280F391F4A1F5B1FE98CFA8C0B8D8F
:101C30001C8DEA14FB040C051D0570F0AE14BF04E6
:101C4000C006D10669F56D8D7E8D8F8D98A16217C6
:101C500073078407950720F5DA01C9016DA07EA0FE
:101C60008FA098A486199709A809B909E9A4FAA42C
:101C70000BA51CA5AE18BF08C00AD10AEE24FF248C
:101C80008701281739074A075B0728F421E0E22E6D
:101C9000F12C012D112DAE18BF08C00AD10A02C0C7
:101CA000DA01C9016D8C7E8C8F8C98A0681A790A34
:101CB0008A0A9B0A498D5A8D6B8D7C8D4A195B0966
:101CC0006C097D095A016B012224332421016D8D99
:101CD0007E8D8F8D98A1661577058805990528F466
:101CE00081E0282E312C412C512C86017501E218FF
:101CF000F30804091509A801970166960FAC6697C9
:101D000004C0220F331F441F551F0A94D2F7D40179
:101D1000C30167960FAC679704C0B695A7959795D2
:101D200087950A94D2F7282B392B4A2B5B2B298BCA
:101D30003A8B4B8B5C8B67960FAC679704C01695FC
:101D40000795F794E7940A94D2F7ED8AFE8A0F8BF1
:101D5000188F3A894B895C896E2D7E898F89988D81
:101D6000C55ADF4FE2E10C94752AA0E0B0E0EBEB3E
:101D7000FEE00C94592ADC012B01FA019C9192306F
:101D800008F439C1EB018881823008F433C1943002
:101D900069F4843009F02FC111969C9111978981C3
:101DA000981709F428C1AAE6B0E025C1843009F4E7
:101DB00021C18230A9F4923009F01DC19A01AD0110
:101DC00088E0EA010990AE01E90109929E01815083
:101DD000C1F7E201898111969C918923818308C111
:101DE000923009F407C112962D903C901397EB01A5
:101DF0008A819B811496AD90BD90CD90DC90179711
:101E0000EC80FD800E811F819101281B390BB901E7
:101E100037FF04C066277727621B730B603271059A
:101E20000CF061C0121613066CF537014801062E3E
:101E300004C096948794779467940A94D2F721E02B
:101E400030E040E050E004C0220F331F441F551F14
:101E50006A95D2F721503040404050402E213F211A
:101E600040235123211531054105510521F021E081
:101E700030E040E050E079018A01E628F72808299F
:101E800019293CC0232BD1F1260E371E35014601FE
:101E9000062E04C096948794779467940A94D2F798
:101EA00021E030E040E050E004C0220F331F441F27
:101EB000551F6A95D2F721503040404050402A21AA
:101EC0003B214C215D21211531054105510521F0B2
:101ED00021E030E040E050E059016A01A628B7282F
:101EE000C828D9280BC0821593052CF01C01AA2400
:101EF000BB24650103C0EE24FF24870111969C9149
:101F0000D20111968C91981709F445C0992339F0A4
:101F1000A80197012A193B094C095D0906C0A601D1
:101F200095012E193F09400B510B57FD08C0118236
:101F30003382228224833583468357831DC081E008
:101F400081833382228288279927DC01821B930BAD
:101F5000A40BB50B84839583A683B7830DC0220F92
:101F6000331F441F551F2483358346835783828143
:101F700093810197938382832481358146815781A0
:101F8000DA01C9010197A109B1098F5F9F4FAF4FD6
:101F9000BF4328F30BC0918333822282EA0CFB1CDF
:101FA0000C1D1D1DE482F5820683178383E0808368
:101FB000248135814681578157FF1AC0C901AA275C
:101FC00097FDA095BA2F81709070A070B070569553
:101FD000479537952795822B932BA42BB52B84837C
:101FE0009583A683B78382819381019693838283AD
:101FF000DF0101C0D201CD01CDB7DEB7E2E10C9423
:10200000752AA0E2B0E0E7E0F0E10C94652A69836C
:102010007A838B839C832D833E834F835887E9E0AB
:10202000EE2EF12CEC0EFD1ECE010196B7010E94A2
:10203000B7148E010F5E1F4FCE010596B8010E94A6
:10204000B7148A8991E089278A8BC701B801AE014C
:10205000475E5F4F0E94B50E0E94E213A096E6E035
:102060000C94812AA0E2B0E0E8E3F0E10C94652A48
:1020700069837A838B839C832D833E834F83588728
:10208000F9E0EF2EF12CEC0EFD1ECE010196B7010A
:102090000E94B7148E010F5E1F4FCE010596B80146
:1020A0000E94B714C701B801AE01475E5F4F0E949E
:1020B000B50E0E94E213A096E6E00C94812AA0E2FD
:1020C000B0E0E5E6F0E10C94592A69837A838B83CA
:1020D0009C832D833E834F835887CE010196BE019A
:1020E000675F7F4F0E94B714CE010596BE016F5EF9
:1020F0007F4F0E94B7149985923088F08989823089
:10210000C8F0943019F4823051F404C0843029F4BA
:10211000923081F48AE690E0C6C0923049F420E023
:102120009A858A89981321E02A87CE010996BBC037
:10213000823049F420E09A858A89981321E02A8B1D
:10214000CE014196B0C02D843E844F8458886D885E
:102150007E888F88988CEE24FF248701AA24BB24D4
:10216000650140E050E060E070E0E0E0F0E0C101D7
:1021700081709070892BE9F0E60CF71C081D191D81
:102180009A01AB012A0D3B1D4C1D5D1D80E090E0C6
:10219000A0E0B0E0E614F7040805190520F481E09A
:1021A00090E0A0E0B0E0BA01A901480F591F6A1FF2
:1021B0007B1FAA0CBB1CCC1CDD1C97FE08C081E059
:1021C00090E0A0E0B0E0A82AB92ACA2ADB2A31961A
:1021D000E032F10549F0660C771C881C991C569476
:1021E000479437942794C3CFFA85EA892B893C8991
:1021F0008B859C85280F391F2E5F3F4F17C0CA0162
:1022000081709070892B61F016950795F794E7948B
:1022100080E090E0A0E0B0E8E82AF92A0A2B1B2B26
:1022200076956795579547952F5F3F4F77FDE7CF99
:102230000CC0440F551F661F771F17FD4160EE0C41
:10224000FF1C001F111F21503040403090E0590703
:1022500090E0690790E4790760F32B8F3C8FDB01F6
:10226000CA018F779070A070B07080349105A1057D
:10227000B10561F447FD0AC0E114F104010511053F
:1022800029F0405C5F4F6F4F7F4F40781A8EFE17EA
:1022900011F081E08A8F4D8F5E8F6F8F78A383E07E
:1022A000898FCE0149960E94E213A096E2E10C9438
:1022B000752AA8E1B0E0EFE5F1E10C94652A6983A5
:1022C0007A838B839C832D833E834F83588789E059
:1022D000E82EF12CEC0EFD1ECE010196B7010E94F6
:1022E000B7148E010F5E1F4FCE010596B8010E94F4
:1022F000B7148985823040F08989823028F0C7017F
:10230000B8010E942F1501C08FEF6896E6E00C948B
:10231000812AA8E1B0E0EFE8F1E10C94652A698335
:102320007A838B839C832D833E834F83588789E0F8
:10233000E82EF12CEC0EFD1ECE010196B7010E9495
:10234000B7148E010F5E1F4FCE010596B8010E9493
:10235000B7148985823040F08989823028F0C7011E
:10236000B8010E942F1501C08FEF6896E6E00C942B
:10237000812AA8E1B0E0EFEBF1E10C94652A6983D2
:102380007A838B839C832D833E834F83588789E098
:10239000E82EF12CEC0EFD1ECE010196B7010E9435
:1023A000B7148E010F5E1F4FCE010596B8010E9433
:1023B000B7148985823040F08989823028F0C701BE
:1023C000B8010E942F1501C081E06896E6E00C94E8
:1023D000812AA8E0B0E0EFEEF1E10C94622A9B01C3
:1023E000AC0183E08983DA01C9018827B7FD8395B1
:1023F0009927AA27BB27B82E21153105410551057C
:1024000019F482E089833AC08823A9F0203080E063
:10241000380780E0480780E8580729F460E070E05A
:1024200080E09FEC30C0EE24FF248701E21AF30A1B
:10243000040B150B02C079018A018EE1C82ED12C44
:10244000DC82CB82ED82FE820F831887C801B70140
:102450000E94931301971816190684F4082E04C0DD
:10246000EE0CFF1C001F111F0A94D2F7ED82FE82B2
:102470000F831887C81AD90ADC82CB82BA82CE01B0
:1024800001960E94E2132896E9E00C947E2AACE0C3
:10249000B0E0EDE4F2E10C94692A69837A838B83DE
:1024A0009C83CE010196BE016B5F7F4F0E94B714E3
:1024B0008D81823061F1823050F1843021F48E813F
:1024C000882351F12EC02F81388537FD20C06E81C1
:1024D0002F3131051CF06623F9F023C08EE190E026
:1024E000821B930B29853A854B855C8504C05695E4
:1024F0004795379527958A95D2F76623B1F0509581
:102500004095309521953F4F4F4F5F4F0EC020E0D3
:1025100030E040E050E009C02FEF3FEF4FEF5FE7C2
:1025200004C020E030E040E050E8B901CA012C9638
:10253000E2E00C94852AA8E0B0E0E1EAF2E10C9434
:10254000612A7B018C01611571058105910519F4E2
:1025500082E0898360C083E089838EE1C82ED12C1C
:10256000DC82CB82ED82FE820F831887C801B7011F
:102570000E949313FC013197F7FF3BC022273327BA
:102580002E1B3F0B57016801022E04C0D694C7943E
:10259000B794A7940A94D2F740E050E060E070E06E
:1025A00081E090E0A0E0B0E004C0880F991FAA1F6E
:1025B000BB1F2A95D2F70197A109B1098E219F214E
:1025C000A023B1230097A105B10521F041E050E01F
:1025D00060E070E04A295B296C297D294D835E8388
:1025E0006F8378878EE190E08E1B9F0B9C838B839B
:1025F00012C0309781F00E2E04C0EE0CFF1C001F9D
:10260000111F0A94D2F7ED82FE820F831887CE1A2B
:10261000DF0ADC82CB821A82CE0101960E94E2138D
:102620002896EAE00C947D2AEF92FF920F93DF93B5
:10263000CF93CDB7DEB760970FB6F894DEBF0FBE6D
:10264000CDBFA82F002309F461C07E010894E11CCE
:10265000F11C88E0F70111928A95E9F729833A8302
:102660004B835C836D837E83AF83988780E2801B7E
:10267000E82FFF27E7FDF0954D815E816F8178851A
:10268000181684F01D861E861F86188A88279927AB
:102690008E1B9F0B04C076956795579547958A9535
:1026A000D2F728C0202F332727FD3095DB01CA0140
:1026B000022E04C0B695A795979587950A94D2F7F0
:1026C0008D879E87AF87B88B04C0440F551F661F48
:1026D000771FEA95D2F789819A81AB81BC8104C0CA
:1026E000B695A795979587952A95D2F7482B592B9C
:1026F0006A2B7B2B49875A876B877C8729853A858C
:102700004B855C856D857E85AF8598898A2F60961F
:102710000FB6F894DEBF0FBECDBFCF91DF910F9102
:10272000FF90EF900895EF92FF920F931F937B011C
:102730008C0180E0E81680E0F80681E0080780E080
:10274000180788F48FEFE816F1040105110531F040
:1027500028F088E090E0A0E0B0E017C080E090E0D2
:10276000A0E0B0E012C080E0E81680E0F80680E06B
:10277000080781E0180728F088E190E0A0E0B0E0C9
:1027800004C080E190E0A0E0B0E020E230E040E072
:1027900050E0281B390B4A0B5B0B04C016950795BC
:1027A000F794E7948A95D2F7F701EE58FF4F8081AE
:1027B000281B310941095109C9011F910F91FF904F
:1027C000EF900895DF92EF92FF920F931F93FC0119
:1027D000E480F58006811781D1808081823048F4C1
:1027E00080E090E0A0E1B0E0E82AF92A0A2B1B2B58
:1027F000A5C0843009F49FC0823021F4EE24FF2468
:10280000870105C0E114F1040105110519F4E0E0A8
:10281000F0E096C0628173819FEF623879070CF017
:102820005BC022E83FEF261B370B2A3131052CF025
:1028300020E030E040E050E02AC0B801A701022EBD
:1028400004C076956795579547950A94D2F781E02D
:1028500090E0A0E0B0E004C0880F991FAA1FBB1F42
:102860002A95D2F70197A109B1098E219F21A023B2
:10287000B1230097A105B10521F081E090E0A0E02F
:10288000B0E09A01AB01282B392B4A2B5B2BDA01E4
:10289000C9018F779070A070B07080349105A10548
:1028A000B10539F427FF09C0205C3F4F4F4F5F4F00
:1028B00004C0215C3F4F4F4F5F4FE0E0F0E020301D
:1028C000A0E03A07A0E04A07A0E45A0710F0E1E0D0
:1028D000F0E079018A0127C06038710564F5FB01D9
:1028E000E158FF4FD801C7018F779070A070B0708A
:1028F00080349105A105B10539F4E7FE0DC080E4EF
:1029000090E0A0E0B0E004C08FE390E0A0E0B0E091
:10291000E80EF91E0A1F1B1F17FF05C01695079525
:10292000F794E794319687E016950795F794E79426
:102930008A95D1F705C0EE24FF248701EFEFF0E080
:102940006E2F679566276795902F9F77D794DD2424
:10295000D7948E2F8695492F462B582F5D29B70186
:10296000CA011F910F91FF90EF90DF900895FC0135
:10297000DB01408151812281622F6F7770E0221F3D
:102980002227221F9381892F880F822B282F30E046
:10299000991F9927991F11969C931197211531051D
:1029A000A9F5411551056105710511F482E037C0A3
:1029B00082E89FEF13969C938E9312979A01AB0136
:1029C00067E0220F331F441F551F6A95D1F783E03C
:1029D0008C930DC0220F331F441F551F12968D91EB
:1029E0009C911397019713969C938E931297203086
:1029F00080E0380780E0480780E4580758F31496D1
:102A00002D933D934D935C93179708952F3F310578
:102A100079F4411551056105710519F484E08C9331
:102A2000089564FF03C081E08C9312C01C9210C013
:102A30002F57304013963C932E93129783E08C933C
:102A400087E0440F551F661F771F8A95D1F7706482
:102A500014964D935D936D937C93179708951F93F0
:102A6000DC01FB019C91923008F447C080818230E8
:102A700008F443C0943051F411961C91843099F5B8
:102A80008181682F70E0611B71093FC0843021F0A3
:102A9000923031F48230B9F18181882389F12DC0DF
:102AA00011961C9111978230F1F081811817D9F499
:102AB00012962D913C9113978281938182179307EF
:102AC00094F028173907BCF014968D919D910D90C4
:102AD000BC91A02D24813581468157812817390763
:102AE0004A075B0718F4112341F00AC082179307C5
:102AF000A407B50740F4112319F061E070E005C0A8
:102B00006FEF7FEF02C060E070E0CB011F9108958E
:102B1000AF92BF92CF92DF92EF92FF920F931F93EB
:102B2000DF93CF93CDB7DEB764970FB6F894DEBFCF
:102B30000FBECDBF1C8A1B8A1A8A198A188A1F8663
:102B400081E060E040E00E94D9250E9462230E945B
:102B50000F1980E00E94A8239C8B8B8B8B899C890A
:102B6000CC01A0E0B0E028E833E140E050E0BC0157
:102B7000CD010E94E929DC01CB01072E7AE0B69550
:102B8000A795979587957A95D1F7702D9A8B898B14
:102B900089899A892AE030E0B9010E94082ACB018C
:102BA000988B8F8781E061E00E94641C80E690E052
:102BB0000E94361C8F8598895C01CC24DD24EE248C
:102BC000FF2487012A2D3B2D4C2D5D2D6E2D7F2D51
:102BD000802F912F0E94FB2180E090E0A8ECB2E4CE
:102BE0008B879C87AD87BE876B857C858D859E8511
:102BF00020E030E04AEF54E40E945F10DC01CB019A
:102C00008F839887A987BA876F81788589859A8508
:102C100020E030E040E85FE30E94B91188232CF403
:102C200081E090E09E838D833FC06F8178858985A8
:102C30009A8520E03FEF4FE757E40E94591118169C
:102C40004CF56B857C858D859E8520E030E040E2EB
:102C500051E40E945F10DC01CB01BC01CD010E9458
:102C6000C800DC01CB019E838D830FC088EC90E00F
:102C70009C838B838B819C810197F1F79C838B8351
:102C80008D819E8101979E838D838D819E8100978A
:102C900069F75FCF6F81788589859A850E94C80022
:102CA000DC01CB019E838D838D819E819A838983F4
:102CB00089819A810197F1F79A8389834ACFDF93BB
:102CC000CF9300D00F92CDB7DEB769837A838B8321
:102CD0008B819981692F41E00E94D9258B819A814E
:102CE000692F41E00E94D9250F900F900F90CF914E
:102CF000DF910895DF93CF9300D00F92CDB7DEB769
:102D000069837A838B838B819A81692F41E00E944A
:102D1000DB268B819981692F40E00E94DB260F9092
:102D20000F900F90CF91DF910895DF93CF9300D054
:102D30000F92CDB7DEB769837A838B838B819981BC
:102D4000692F41E00E94DB268B819A81692F40E048
:102D50000E94DB260F900F900F90CF91DF91089586
:102D6000DF93CF9300D00F92CDB7DEB769837A831C
:102D70008B838B819981692F40E00E94DB268B81B8
:102D80009A81692F40E00E94DB260F900F900F90F0
:102D9000CF91DF910895EF92FF920F931F93DF93EE
:102DA000CF93CDB7DEB7A7970FB6F894DEBF0FBEAF
:102DB000CDBF6D8F7E8F8F8FE8A2F9A20AA31BA3D0
:102DC0002CA33DA34EA35FA38F8D9E8D692F41E061
:102DD0000E94DB268F8D9D8D692F40E00E94DB26AF
:102DE00028A139A14AA15BA16CA17DA18EA19FA1BF
:102DF0000E94F400DC01CB01898F9A8FAB8FBC8FCE
:102E0000698D7A8D8B8D9C8D20E030E04AEF54E403
:102E10000E945F10DC01CB018D8B9E8BAF8BB88F36
:102E20006D897E898F89988D20E030E040E85FE3EE
:102E30000E94B91188232CF481E090E09C8B8B8B4D
:102E40003FC06D897E898F89988D20E03FEF4FE7E5
:102E500057E40E94591118164CF5698D7A8D8B8DA7
:102E60009C8D20E030E040E251E40E945F10DC01E4
:102E7000CB01BC01CD010E94C800DC01CB019C8BC1
:102E80008B8B0FC088EC90E09A8B898B89899A890B
:102E90000197F1F79A8B898B8B899C8901979C8B81
:102EA0008B8B8B899C89009769F714C06D897E890B
:102EB0008F89988D0E94C800DC01CB019C8B8B8B85
:102EC0008B899C89988B8F878F8598890197F1F7DB
:102ED000988B8F878F8D9D8D692F41E00E94DB2617
:102EE0008F8D9E8D692F40E00E94DB2628A139A19D
:102EF0004AA15BA16CA17DA18EA19FA10E94F400BB
:102F0000DC01CB018B879C87AD87BE876B857C8579
:102F10008D859E8520E030E04AEF54E40E945F10EA
:102F2000DC01CB018F839887A987BA876F81788569
:102F300089859A8520E030E040E85FE30E94B9117E
:102F400088232CF481E090E09E838D833FC06F81C5
:102F5000788589859A8520E03FEF4FE757E40E9406
:102F6000591118164CF56B857C858D859E8520E062
:102F700030E040E251E40E945F10DC01CB01BC0173
:102F8000CD010E94C800DC01CB019E838D830FC060
:102F900088EC90E09C838B838B819C810197F1F777
:102FA0009C838B838D819E8101979E838D838D81F0
:102FB0009E81009769F714C06F81788589859A850D
:102FC0000E94C800DC01CB019E838D838D819E8190
:102FD0009A83898389819A810197F1F79A838983FA
:102FE000A7960FB6F894DEBF0FBECDBFCF91DF918D
:102FF0001F910F91FF90EF900895DF93CF93CDB77E
:10300000DEB728970FB6F894DEBF0FBECDBF188687
:103010001F820BC09F8183E0692F41E00E94D92568
:103020008F819885019698878F838F8198858430CA
:10303000910584F31E821D820BC09D8183E0692F60
:1030400041E00E94DB268D819E8101969E838D83C7
:103050008D819E818430910584F384E090E09C838F
:103060008B830BC09B8183E0692F40E00E94D925B0
:103070008B819C8101969C838B838B819C81883082
:10308000910584F384E090E09A8389830BC0998151
:1030900083E0692F41E00E94DB2689819A810196B5
:1030A0009A83898389819A818830910584F328964F
:1030B0000FB6F894DEBF0FBECDBFCF91DF9108955C
:1030C000DF93CF9300D000D000D0CDB7DEB78AE732
:1030D0008E8381E08D831C821B8243C09B8183E0B1
:1030E000692F40E00E94DB2684E090E09A83898388
:1030F00028C0998183E0692F0E94DD278D838D810F
:10310000882399F44B815C8189819A819C012450A8
:103110003040CA01880F991F880F991F820F931F93
:10312000FC01EE58FE4F80818E83998183E0692FE8
:103130000E94DD278823C9F389819A8101969A83A9
:10314000898389819A81883091059CF29B8183E0F3
:10315000692F41E00E94DB268B819C8101969C8334
:103160008B838B819C81843091050CF4B7CF8E8149
:1031700026960FB6F894DEBF0FBECDBFCF91DF917C
:103180000895DF93CF9300D0CDB7DEB79A838983BC
:10319000E981FA818181E981FA819081692F40E09A
:1031A0000E94D925E981FA818181E981FA819081A2
:1031B000692F41E00E94DB260F900F90CF91DF91A5
:1031C0000895DF93CF9300D00F92CDB7DEB79B83E6
:1031D0008A83EA81FB818181EA81FB819081692F69
:1031E0000E94DD2789838981882339F480918201B7
:1031F000813019F4109282010AC08981813039F43A
:1032000080918201882319F481E08093820180916A
:1032100082010F900F900F90CF91DF910895DF936F
:10322000CF93CDB7DEB76C970FB6F894DEBF0FBE65
:10323000CDBF83E06FEF0E94562884E065E041E057
:103240000E94D92584E067E041E00E94D92580E012
:1032500090E0A8E4B2E4898F9A8FAB8FBC8F698D20
:103260007A8D8B8D9C8D20E030E04AEF54E40E94F3
:103270005F10DC01CB018D8B9E8BAF8BB88F6D897E
:103280007E898F89988D20E030E040E85FE30E94DE
:10329000B91188232CF481E090E09C8B8B8B3FC08C
:1032A0006D897E898F89988D20E03FEF4FE757E445
:1032B0000E94591118164CF5698D7A8D8B8D9C8D55
:1032C00020E030E040E251E40E945F10DC01CB01DD
:1032D000BC01CD010E94C800DC01CB019C8B8B8B13
:1032E0000FC088EC90E09A8B898B89899A89019725
:1032F000F1F79A8B898B8B899C8901979C8B8B8B9F
:103300008B899C89009769F714C06D897E898F89A4
:10331000988D0E94C800DC01CB019C8B8B8B8B8924
:103320009C89988B8F878F8598890197F1F7988B67
:103330008F8788E30E94201A8CE00E94201A81E087
:103340000E94201A80E090E0A0E8BFE38B879C8772
:10335000AD87BE876B857C858D859E8520E030E0BE
:103360004AEF54E40E945F10DC01CB018F83988701
:10337000A987BA876F81788589859A8520E030E0B2
:1033800040E85FE30E94B91188232CF481E090E0CB
:103390009E838D833FC06F81788589859A8520E0E3
:1033A0003FEF4FE757E40E94591118164CF56B8513
:1033B0007C858D859E8520E030E040E251E40E94CE
:1033C0005F10DC01CB01BC01CD010E94C800DC0113
:1033D000CB019E838D830FC088EC90E09C838B8310
:1033E0008B819C810197F1F79C838B838D819E81DA
:1033F00001979E838D838D819E81009769F714C00C
:103400006F81788589859A850E94C800DC01CB018F
:103410009E838D838D819E819A83898389819A8100
:103420000197F1F79A83898386E00E94201A6C96AF
:103430000FB6F894DEBF0FBECDBFCF91DF910895D8
:10344000DF93CF93CDB7DEB76D970FB6F894DEBF9D
:103450000FBECDBF8D8F84E065E040E00E94DB268B
:1034600083E06D8D0E94982884E067E041E00E942F
:10347000DB2680E090E0A0E8BFE3898F9A8FAB8FD6
:10348000BC8F698D7A8D8B8D9C8D20E030E04AEF6A
:1034900054E40E945F10DC01CB018D8B9E8BAF8BBF
:1034A000B88F6D897E898F89988D20E030E040E863
:1034B0005FE30E94B91188232CF481E090E09C8B9B
:1034C0008B8B3FC06D897E898F89988D20E03FEF7F
:1034D0004FE757E40E94591118164CF5698D7A8D03
:1034E0008B8D9C8D20E030E040E251E40E945F1023
:1034F000DC01CB01BC01CD010E94C800DC01CB0185
:103500009C8B8B8B0FC088EC90E09A8B898B898980
:103510009A890197F1F79A8B898B8B899C890197FE
:103520009C8B8B8B8B899C89009769F714C06D8964
:103530007E898F89988D0E94C800DC01CB019C8B0D
:103540008B8B8B899C89988B8F878F859889019726
:10355000F1F7988B8F8784E067E040E00E94DB26DC
:1035600080E090E0A0E8BFE38B879C87AD87BE87B3
:103570006B857C858D859E8520E030E04AEF54E4A4
:103580000E945F10DC01CB018F839887A987BA87DF
:103590006F81788589859A8520E030E040E85FE397
:1035A0000E94B91188232CF481E090E09E838D83E2
:1035B0003FC06F81788589859A8520E03FEF4FE78E
:1035C00057E40E94591118164CF56B857C858D8542
:1035D0009E8520E030E040E251E40E945F10DC0173
:1035E000CB01BC01CD010E94C800DC01CB019E8350
:1035F0008D830FC088EC90E09C838B838B819C81B2
:103600000197F1F79C838B838D819E8101979E8327
:103610008D838D819E81009769F714C06F817885B5
:1036200089859A850E94C800DC01CB019E838D8329
:103630008D819E819A83898389819A810197F1F78F
:103640009A8389836D960FB6F894DEBF0FBECDBF07
:10365000CF91DF910895DF93CF93CDB7DEB76D970C
:103660000FB6F894DEBF0FBECDBF8D8F84E065E04E
:1036700041E00E94DB2683E06D8D0E94982884E063
:1036800067E041E00E94DB2680E090E0A0E8BFE335
:10369000898F9A8FAB8FBC8F698D7A8D8B8D9C8D26
:1036A00020E030E04AEF54E40E945F10DC01CB01DF
:1036B0008D8B9E8BAF8BB88F6D897E898F89988D0E
:1036C00020E030E040E85FE30E94B91188232CF449
:1036D00081E090E09C8B8B8B3FC06D897E898F89C8
:1036E000988D20E03FEF4FE757E40E9459111816DC
:1036F0004CF5698D7A8D8B8D9C8D20E030E040E219
:1037000051E40E945F10DC01CB01BC01CD010E949D
:10371000C800DC01CB019C8B8B8B0FC088EC90E048
:103720009A8B898B89899A890197F1F79A8B898B72
:103730008B899C8901979C8B8B8B8B899C890097AB
:1037400069F714C06D897E898F89988D0E94C800A1
:10375000DC01CB019C8B8B8B8B899C89988B8F8711
:103760008F8598890197F1F7988B8F8784E067E0C0
:1037700040E00E94DB2680E090E0A0E8BFE38B877A
:103780009C87AD87BE876B857C858D859E8520E077
:1037900030E04AEF54E40E945F10DC01CB018F83DC
:1037A0009887A987BA876F81788589859A8520E06F
:1037B00030E040E85FE30E94B91188232CF481E0F7
:1037C00090E09E838D833FC06F81788589859A853F
:1037D00020E03FEF4FE757E40E94591118164CF5CF
:1037E0006B857C858D859E8520E030E040E251E44C
:1037F0000E945F10DC01CB01BC01CD010E94C8001A
:10380000DC01CB019E838D830FC088EC90E09C830C
:103810008B838B819C810197F1F79C838B838D81B6
:103820009E8101979E838D838D819E81009769F78C
:1038300014C06F81788589859A850E94C800DC0153
:10384000CB019E838D838D819E819A83898389811B
:103850009A810197F1F79A8389836D960FB6F89450
:10386000DEBF0FBECDBFCF91DF9108950F931F93A1
:10387000DF93CF9300D000D0CDB7DEB79C838B838E
:103880001A8219820FC029813A818B819C81FC01A7
:10389000E20FF31F80810E942B1B89819A81019680
:1038A0009A83898309811A818B819C810E94902A45
:1038B0000817190740F30F900F900F900F90CF91BA
:1038C000DF911F910F910895DF93CF9300D000D027
:1038D000CDB7DEB789836A838981815089838A81E4
:1038E00081508A838981282F30E03C832B838B8110
:1038F0009C81009731F02B813C812130310531F0E2
:1039000009C08A8180580E94201A04C08A8180548C
:103910000E94201A0F900F900F900F90CF91DF917F
:103920000895AF92BF92CF92DF92EF92FF920F93E2
:103930001F93DF93CF93CDB7DEB7C656D0400FB6F7
:10394000F894DEBF0FBECDBF29873A874B875C87CF
:103950006D877E878F87988B81E089831A821B828F
:103960001C821D821E821F8218865EC329813A81B5
:103970004B815C816D817E818F819885A22EB32ED3
:10398000C42ED52EE62EF72E082F192F2A2D3B2DCB
:103990004C2D5D2D6E2D7F2D802F912F01E00E94EB
:1039A000490029A33AA34BA35CA36DA37EA38FA3D5
:1039B00098A729A13AA14BA15CA16DA17EA18FA1DD
:1039C00098A502E00E94490029A73AA74BA75CA747
:1039D0006DA77EA78FA798AB89A199A5890F89AB01
:1039E00081E089AF99A989A1981708F019AE9AA129
:1039F0008AA5980F9AAB91E09AAF8AA99AA18917E4
:103A000008F01AAE89AD9AA9890F8BAF81E08CAF0F
:103A10009BAD8AA9981708F01CAE9AAD8CAD982B77
:103A20009AAF9BAD9AAB8BA19BA5890F8BAB81E025
:103A30008DAF9BA98BA1981708F01DAE9AAD8BA9ED
:103A4000980F9EAF91E09FAF8EAD9BA9891708F0AC
:103A50001FAE8DAD9FAD892B8DAF8EAD8BAB9CA175
:103A60008CA5980F9CAB91E021969FAF21978CA9D4
:103A70009CA1891718F021961FAE21978DAD9CA9A6
:103A8000890F22968FAF229781E023968FAF2397DD
:103A900022969FAD22978CA9981718F023961FAEF7
:103AA000239721969FAD219723968FAD2397982B2F
:103AB00021969FAF219722969FAD22979CAB8DA117
:103AC0009DA5890F8DAB81E024968FAF24979DA98A
:103AD0008DA1981718F024961FAE249721969FADBC
:103AE00021978DA9980F25969FAF259791E026964F
:103AF0009FAF269725968FAD25979DA9891718F01A
:103B000026961FAE269724968FAD249726969FADB6
:103B10002697892B24968FAF249725968FAD2597CE
:103B20008DAB9EA18EA5980F9EAB91E027969FAF7F
:103B300027978EA99EA1891718F027961FAE279761
:103B400024968FAD24979EA9890F28968FAF28972A
:103B500081E029968FAF299728969FAD28978EA947
:103B6000981718F029961FAE299727969FAD27978B
:103B700029968FAD2997982B27969FAF2797289640
:103B80009FAD28979EAB8FA19FA5890F8FAB81E03A
:103B90002A968FAF2A979FA98FA1981718F02A9677
:103BA0001FAE2A9727969FAD27978FA9980F2B9620
:103BB0009FAF2B9791E02C969FAF2C972B968FADB4
:103BC0002B979FA9891718F02C961FAE2C972A9631
:103BD0008FAD2A972C969FAD2C97892B2A968FAF65
:103BE0002A972B968FAD2B978FAB98A588A9980F06
:103BF00098AF2A968FAD2A9798AD890F88AF89A97B
:103C0000898F9AA99A8F8BA98B8F9CA99C8F8DA93C
:103C10008D8F9EA99E8F8FA98F8F98AD98A3A98411
:103C2000BA84CB84DC84ED84FE840F8518892A2D28
:103C30003B2D4C2D5D2D6E2D7F2D802F912F0F2E26
:103C4000FAE0AF2EF02DBB24CC24DD24EE24FF249B
:103C500000E010E00E944508A22EB32EC42ED52EFF
:103C6000E62EF72E082F192FA98ABA8ACB8ADC8A6A
:103C7000ED8AFE8A0F8B188F898D9989890F2D9671
:103C80008FAF2D9781E065968FAF65972D969FAD8D
:103C90002D97898D981718F065961FAE65979A8DA8
:103CA0008A89980F2E969FAF2E9791E066969FAFC8
:103CB00066972E968FAD2E979A8D891718F0669677
:103CC0001FAE669765968FAD65972E969FAD2E9722
:103CD000890F67968FAF679781E068968FAF689777
:103CE00067969FAD67972E968FAD2E97981718F011
:103CF00068961FAE689766969FAD669768968FAD7B
:103D00006897982B66969FAF669767969FAD679763
:103D10002E969FAF2E978B8D9B89890F2F968FAFF5
:103D20002F9781E069968FAF69972F969FAD2F9758
:103D30008B8D981718F069961FAE699766969FADA0
:103D400066972F968FAD2F97980F6A969FAF6A97B9
:103D500091E06B969FAF6B976A968FAD6A972F969F
:103D60009FAD2F97891718F06B961FAE6B976996CA
:103D70008FAD69976B969FAD6B97892B69968FAFC7
:103D800069976A968FAD6A972F968FAF2F979C8D04
:103D90008C89980F60969FAF609791E06C969FAF6B
:103DA0006C9760968FAD60979C8D891718F06C9614
:103DB0001FAE6C9769968FAD699760969FAD6097BF
:103DC000890F6D968FAF6D9781E06E968FAF6E976E
:103DD0006D969FAD6D9760968FAD6097981718F0B0
:103DE0006E961FAE6E976C969FAD6C976E968FAD6C
:103DF0006E97982B6C969FAF6C976D969FAD6D9755
:103E000060969FAF60978D8D9D89890F61968FAF6A
:103E1000619781E06F968FAF6F9761969FAD6197C5
:103E20008D8D981718F06F961FAE6F976C969FAD9B
:103E30006C9761968FAD6197980FA0969FAFA097F2
:103E400091E0A1969FAFA197A0968FADA0976196A4
:103E50009FAD6197891718F0A1961FAEA1976F9635
:103E60008FAD6F97A1969FADA197892B6F968FAF5E
:103E70006F97A0968FADA09761968FAF61979E8D3B
:103E80008E89980F62969FAF629791E0A2969FAF3E
:103E9000A29762968FAD62979E8D891718F0A296B1
:103EA0001FAEA2976F968FAD6F9762969FAD629788
:103EB000890FA3968FAFA39781E0A4968FAFA497A5
:103EC000A3969FADA39762968FAD6297981718F04F
:103ED000A4961FAEA497A2969FADA297A4968FAD6D
:103EE000A497982BA2969FAFA297A3969FADA39756
:103EF00062969FAF62978F8D9F89890F63968FAF70
:103F0000639781E0A5968FAFA59763969FAD639762
:103F10008F8D981718F0A5961FAEA597A2969FAD06
:103F2000A29763968FAD6397980FA6969FAFA697BB
:103F300091E0A7969FAFA797A6968FADA697639699
:103F40009FAD6397891718F0A7961FAEA797A59600
:103F50008FADA597A7969FADA797892BA5968FAFF5
:103F6000A597A6968FADA69763968FAF639798A1F6
:103F7000888D980F64969FAF6497A5968FADA5978F
:103F800064969FAD6497890F64968FAF64972D9662
:103F90008FAD2D9789832E969FAD2E979A832F965E
:103FA0008FAD2F978B8360969FAD60979C836196B2
:103FB0008FAD61978D8362969FAD62979E83639666
:103FC0008FAD63978F8364969FAD64979887A9841C
:103FD000BA84CB84DC84ED84FE840F8518892A2D75
:103FE0003B2D4C2D5D2D6E2D7F2D802F912F0F2E73
:103FF000FAE0AF2EF02DBB24CC24DD24EE24FF24E8
:1040000000E010E00E94D001A22EB32EC42ED52EC7
:10401000E62EF72E082F192FA986BA86CB86DC86C6
:10402000ED86FE860F87188B89859A85892B9B855F
:10403000892B9C85892B9D85892B9E85892B9F8526
:10404000892B9889892B882309F090CC5EC0A980A0
:10405000BA80CB80DC80ED80FE800F8118852A2D10
:104060003B2D4C2D5D2D6E2D7F2D802F912F0F2EF2
:10407000FAE0AF2EF02DBB24CC24DD24EE24FF2467
:1040800000E010E00E944508A22EB32EC42ED52ECB
:10409000E62EF72E082F192F2A2D3B2D4C2D5D2DA6
:1040A0006E2D7F2D802F912F822F805D0E942B1BE4
:1040B000A980BA80CB80DC80ED80FE800F811885DE
:1040C0002A2D3B2D4C2D5D2D6E2D7F2D802F912F78
:1040D0000F2EFAE0AF2EF02DBB24CC24DD24EE24ED
:1040E000FF2400E010E00E94D001A22EB32EC42EC7
:1040F000D52EE62EF72E082F192FA982BA82CB8251
:10410000DC82ED82FE820F8318878885882309F080
:104110009ECF8885882371F58F81882309F097CFFA
:104120008F81882339F58E81882309F090CF8E8185
:10413000882301F58D81882309F089CF8D8188231B
:10414000C9F48C81882309F082CF8C81882391F473
:104150008B81882309F07BCF8B81882359F48A8156
:10416000882309F074CF8A81882321F489818230E1
:1041700008F06DCFCA59DF4F0FB6F894DEBF0FBEFF
:10418000CDBFCF91DF911F910F91FF90EF90DF9006
:10419000CF90BF90AF900895DF93CF9300D00F9250
:1041A000CDB7DEB78A8387E089831DC08A81282F37
:1041B00030E08981992787FD9095A90102C0559526
:1041C00047958A95E2F7CA0181709070882319F0AB
:1041D00051E35B8302C080E38B838B810E942B1BA6
:1041E0008981815089838981882304F70F900F90FA
:1041F0000F90CF91DF910895DF93CF9300D00F926E
:10420000CDB7DEB78B831A82198287E690E00E94D1
:10421000361C8B8182958F708A838B818F70898306
:104220008A818A3028F48A81805D0E942B1B04C019
:104230008A81895C0E942B1B89818A3028F48981BC
:10424000805D0E942B1B04C08A81895C0E942B1B0D
:104250000F900F900F90CF91DF910895DF93CF9340
:1042600000D0CDB7DEB78A8380E40E94201A19827D
:104270000CC08981882F90E0FC01ED57FE4F8081B2
:104280000E942B1B89818F5F89838981883088F305
:1042900080E80E94201A8A810E942B1B0F900F90A9
:1042A000CF91DF910895DF93CF9300D000D0CDB7A9
:1042B000DEB78A837C836B838A81882F90E0880FA6
:1042C000991F880F991F880F991F80640E94201AD8
:1042D00019820EC08981282F30E08B819C81FC01DE
:1042E000E20FF31F80810E942B1B89818F5F8983DE
:1042F0008981883078F380E80E94201A0F900F900F
:104300000F900F90CF91DF910895DF93CF93CDB7AA
:10431000DEB781E00E94201ACF91DF910895EF92DD
:10432000FF920F931F93DF93CF93CDB7DEB72897FC
:104330000FB6F894DEBF0FBECDBF6D837E838F8333
:10434000988781E090E0A0E0B0E089839A83AB8316
:10435000BC8336C089819A81AB81BC812AE030E080
:1043600040E050E0BC01CD010E94E9297B018C01B5
:104370008D819E81AF81B8852AE030E040E050E039
:10438000BC01CD010E941C2ADC01CB018E0D9F1DBA
:10439000A01FB11F89839A83AB83BC838D819E81CB
:1043A000AF81B8852AE030E040E050E0BC01CD01AB
:1043B0000E941C2ADA01C9018D839E83AF83B887CE
:1043C0008D819E81AF81B8850097A105B10511F659
:1043D00089819A81AB81BC81BC01CD0128960FB641
:1043E000F894DEBF0FBECDBFCF91DF911F910F912B
:1043F000FF90EF900895AF92BF92CF92DF92EF922D
:10440000FF920F931F93DF93CF93CDB7DEB76097E3
:104410000FB6F894DEBF0FBECDBF29873A874B8712
:104420005C876D877E878F87988B89859A85892B96
:104430009B85892B9C85892B9D85892B9E85892B26
:104440009F85892B9889892B882391F5A984BA8423
:10445000CB84DC84ED84FE840F8518892A2D3B2DC6
:104460004C2D5D2D6E2D7F2D802F912F0F2EFAE07C
:10447000AF2EF02DBB24CC24DD24EE24FF2400E05D
:1044800010E00E944508A22EB32EC42ED52EE62E93
:10449000F72E082F192F2A2D3B2D4C2D5D2D6E2D1B
:1044A0007F2D802F912F822F805D0E942B1B9EC01D
:1044B00081E089831A821B821C821D821E821F82D8
:1044C000188689859A85AB85BC85BC01CD010E9483
:1044D0008F21DC01CB0189839A83AB83BC83BB0F23
:1044E000880B982FDC018D838E838F8388875EC035
:1044F000A980BA80CB80DC80ED80FE800F8118859A
:104500002A2D3B2D4C2D5D2D6E2D7F2D802F912F33
:104510000F2EFAE0AF2EF02DBB24CC24DD24EE24A8
:10452000FF2400E010E00E944508A22EB32EC42E06
:10453000D52EE62EF72E082F192F2A2D3B2D4C2D88
:104540005D2D6E2D7F2D802F912F822F805D0E94FB
:104550002B1BA980BA80CB80DC80ED80FE800F8190
:1045600018852A2D3B2D4C2D5D2D6E2D7F2D802FF6
:10457000912F0F2EFAE0AF2EF02DBB24CC24DD249A
:10458000EE24FF2400E010E00E94D001A22EB32E02
:10459000C42ED52EE62EF72E082F192FA982BA8207
:1045A000CB82DC82ED82FE820F8318878981813085
:1045B00009F09ECF8A81882309F09ACF8B818823C6
:1045C00009F096CF8C81882309F092CF8D818823C2
:1045D00009F08ECF8E81882309F08ACF8F818823BE
:1045E00009F086CF8885882309F082CF60960FB6C0
:1045F000F894DEBF0FBECDBFCF91DF911F910F9119
:10460000FF90EF90DF90CF90BF90AF900895DF9331
:10461000CF9300D0CDB7DEB789836A8389816A8161
:104620000E9498280F900F90CF91DF910895DF930B
:10463000CF9300D0CDB7DEB789836A8389816A8141
:1046400041E00E94D92589816A8140E00E94DB26F1
:104650000F900F90CF91DF910895DF93CF9300D00B
:1046600000D00F92CDB7DEB789836A834B838B81ED
:10467000282F30E03D832C838C819D8181309105F2
:1046800079F02C813D812230310581F08C819D8132
:10469000009781F489816A8140E00E94DB260AC08C
:1046A00089816A8141E00E94DB2604C089816A8198
:1046B0000E94DA280F900F900F900F900F90CF91DB
:1046C000DF910895DF93CF93CDB7DEB7A7E2B0E0D7
:1046D000E7E2F0E0808180648C93A7E2B0E0E7E25B
:1046E000F0E080818F778C93A6E2B0E0E6E2F0E024
:1046F00080818F7D8C93A6E2B0E0E6E2F0E08081DD
:1047000081608C93A6E2B0E0E6E2F0E08081826016
:104710008C93A6E2B0E0E6E2F0E0808184608C93C6
:10472000A6E2B0E0E6E2F0E08081887F8C93A6E22A
:10473000B0E0E6E2F0E0808187608C93A6E2B0E032
:10474000E6E2F0E0808180688C93CF91DF9108955C
:10475000DF93CF930F92CDB7DEB78983A7E2B0E0A6
:10476000E7E2F0E08081807E8C93A7E2B0E0E7E2B0
:10477000F0E090818981892B8C93A6E2B0E0E6E29B
:10478000F0E0808180648C93A6E2B0E0E6E2F0E0A5
:10479000808180648C93E6E2F0E0808182958F7066
:1047A000882F90E0817090700097A9F3A6E2B0E0A6
:1047B000E6E2F0E0808180618C93E4E2F0E08081C9
:1047C00091810F90CF91DF910895DF93CF93CDB773
:1047D000DEB7AFE5B0E0EFE5F0E0808180688C9374
:1047E000CF91DF910895DF93CF93CDB7DEB7AFE5DB
:1047F000B0E0EFE5F0E080818F778C93CF91DF918F
:104800000895DF93CF93CDB7DEB728970FB6F8940E
:10481000DEBF0FBECDBF89836A838981882309F0FB
:1048200063C08A81282F30E038872F838F81988555
:104830008230910529F12F8138852330310534F4F8
:104840008F8198858130910561F046C02F81388530
:104850002330310521F18F8198858430910571F1E4
:104860003BC0A5E5B0E0E5E5F0E080818E7F8C936C
:10487000A5E5B0E0E5E5F0E080818D7F8C932CC06C
:10488000A5E5B0E0E5E5F0E0808181608C93A5E5E9
:10489000B0E0E5E5F0E080818D7F8C931DC0A5E55B
:1048A000B0E0E5E5F0E080818E7F8C93A5E5B0E097
:1048B000E5E5F0E0808182608C930EC0A5E5B0E074
:1048C000E5E5F0E0808181608C93A5E5B0E0E5E569
:1048D000F0E0808182608C93ABE5B0E0EBE5F0E046
:1048E000808180648C9390C08981813009F063C09D
:1048F0008A81282F30E03E832D838D819E818230F6
:10490000910529F12D813E812330310534F48D81CB
:104910009E818130910561F046C02D813E8123301A
:10492000310521F18D819E818430910571F13BC06B
:10493000A5E5B0E0E5E5F0E080818B7F8C93A5E50F
:10494000B0E0E5E5F0E08081877F8C932CC0A5E5A1
:10495000B0E0E5E5F0E0808184608C93A5E5B0E00F
:10496000E5E5F0E08081877F8C931DC0A5E5B0E090
:10497000E5E5F0E080818B7F8C93A5E5B0E0E5E58F
:10498000F0E0808188608C930EC0A5E5B0E0E5E59D
:10499000F0E0808184608C93A5E5B0E0E5E5F0E08F
:1049A000808188608C93ABE5B0E0EBE5F0E080813E
:1049B00080688C9329C08981823031F58A81282FC3
:1049C00030E03C832B838B819C818330910531F0D7
:1049D0002B813C812430310549F00FC0A4E5B0E0C3
:1049E000E4E5F0E080818F7B8C9307C0A4E5B0E024
:1049F000E4E5F0E0808180648C93ABE5B0E0EBE52A
:104A0000F0E0808180628C9328960FB6F894DEBF28
:104A10000FBECDBFCF91DF910895DF93CF9300D02C
:104A20000F92CDB7DEB79A8389836B838B81882FF2
:104A300090E0880F991FFC01EC56FE4F89819A8106
:104A4000918380830F900F900F90CF91DF91089505
:104A50001F920F920FB60F9211242F933F934F93F3
:104A60005F936F937F938F939F93AF93BF93EF93D6
:104A7000FF93DF93CF93CDB7DEB7E0919401F09130
:104A800095010995CF91DF91FF91EF91BF91AF9182
:104A90009F918F917F916F915F914F913F912F9156
:104AA0000F900FBE0F901F9018951F920F920FB688
:104AB0000F9211242F933F934F935F936F937F93A4
:104AC0008F939F93AF93BF93EF93FF93DF93CF9316
:104AD000CDB7DEB7E0919601F09197010995CF919E
:104AE000DF91FF91EF91BF91AF919F918F917F9156
:104AF0006F915F914F913F912F910F900FBE0F904B
:104B00001F9018951F920F920FB60F9211242F939A
:104B10003F934F935F936F937F938F939F93AF9345
:104B2000BF93EF93FF93DF93CF93CDB7DEB7E091C1
:104B30009801F09199010995CF91DF91FF91EF9143
:104B4000BF91AF919F918F917F916F915F914F91A5
:104B50003F912F910F900FBE0F901F901895DF93EC
:104B6000CF930F92CDB7DEB789838981882341F433
:104B7000AAE5B0E0EAE5F0E0808180648C9315C09E
:104B80008981813041F4AAE5B0E0EAE5F0E0808176
:104B900080688C930AC08981823039F4AAE5B0E03C
:104BA000EAE5F0E0808180628C930F90CF91DF91F5
:104BB0000895DF93CF93CDB7DEB727970FB6F8945C
:104BC000DEBF0FBECDBF89836A834B838B8181306B
:104BD00009F070C08981282F30E03F832E838E81B9
:104BE0009F818230910551F12E813F812330310523
:104BF00034F48E819F818130910561F0D3C02E8184
:104C00003F812330310571F18E819F818430910580
:104C1000E9F1C8C0AAE3B0E0EAE3F0E08081482F00
:104C20008A81282F30E081E090E0022E02C0880FB8
:104C3000991F0A94E2F7842B8C93B4C0A7E3B0E0E9
:104C4000E7E3F0E08081482F8A81282F30E081E07F
:104C500090E0022E02C0880F991F0A94E2F7842B7D
:104C60008C93A0C0A4E3B0E0E4E3F0E08081482F9F
:104C70008A81282F30E081E090E0022E02C0880F68
:104C8000991F0A94E2F7842B8C938CC0A1E3B0E0C7
:104C9000E1E3F0E08081482F8A81282F30E081E035
:104CA00090E0022E02C0880F991F0A94E2F7842B2D
:104CB0008C9378C08B81882309F074C08981282F58
:104CC00030E03D832C838C819D818230910561F1A0
:104CD0002C813D812330310534F48C819D818130DC
:104CE000910569F05FC02C813D812330310589F148
:104CF0008C819D818430910509F440C053C0AAE3A2
:104D0000B0E0EAE3F0E08081482F8A81282F30E08C
:104D100081E090E0022E02C0880F991F0A94E2F70A
:104D2000809584238C933EC0A7E3B0E0E7E3F0E0F6
:104D30008081482F8A81282F30E081E090E0022E88
:104D400002C0880F991F0A94E2F7809584238C9300
:104D500029C0A4E3B0E0E4E3F0E08081482F8A8139
:104D6000282F30E081E090E0022E02C0880F991FCA
:104D70000A94E2F7809584238C9314C0A1E3B0E0F9
:104D8000E1E3F0E08081482F8A81282F30E081E044
:104D900090E0022E02C0880F991F0A94E2F78095D6
:104DA00084238C9327960FB6F894DEBF0FBECDBF39
:104DB000CF91DF910895DF93CF93CDB7DEB72797DB
:104DC0000FB6F894DEBF0FBECDBF89836A834B83D5
:104DD0008B81813009F070C08981282F30E03F83BA
:104DE0002E838E819F818230910551F12E813F81EA
:104DF0002330310534F48E819F818130910561F03B
:104E0000D3C02E813F812330310571F18E819F8186
:104E100084309105E9F1C8C0ABE3B0E0EBE3F0E02A
:104E20008081482F8A81282F30E081E090E0022E97
:104E300002C0880F991F0A94E2F7842B8C93B4C0A8
:104E4000A8E3B0E0E8E3F0E08081482F8A81282FD2
:104E500030E081E090E0022E02C0880F991F0A9492
:104E6000E2F7842B8C93A0C0A5E3B0E0E5E3F0E08B
:104E70008081482F8A81282F30E081E090E0022E47
:104E800002C0880F991F0A94E2F7842B8C938CC080
:104E9000A2E3B0E0E2E3F0E08081482F8A81282F8E
:104EA00030E081E090E0022E02C0880F991F0A9442
:104EB000E2F7842B8C9378C08B81882309F074C02F
:104EC0008981282F30E03D832C838C819D81823025
:104ED000910561F12C813D812330310534F48C81C1
:104EE0009D818130910569F05FC02C813D81233027
:104EF000310589F18C819D818430910509F440C090
:104F000053C0ABE3B0E0EBE3F0E08081482F8A814F
:104F1000282F30E081E090E0022E02C0880F991F18
:104F20000A94E2F7809584238C933EC0A8E3B0E016
:104F3000E8E3F0E08081482F8A81282F30E081E08B
:104F400090E0022E02C0880F991F0A94E2F7809524
:104F500084238C9329C0A5E3B0E0E5E3F0E08081F1
:104F6000482F8A81282F30E081E090E0022E02C095
:104F7000880F991F0A94E2F7809584238C9314C0BC
:104F8000A2E3B0E0E2E3F0E08081482F8A81282F9D
:104F900030E081E090E0022E02C0880F991F0A9451
:104FA000E2F7809584238C9327960FB6F894DEBFA2
:104FB0000FBECDBFCF91DF910895DF93CF9300D087
:104FC00000D00F92CDB7DEB78A836B838A81282FFA
:104FD00030E03D832C834C815D814230510541F1AD
:104FE0008C819D818330910534F42C813D81213069
:104FF000310561F052C04C815D814330510551F162
:105000008C819D8184309105B9F147C0E9E3F0E0DE
:105010008081282F30E08B81882F90E0A90102C089
:10502000559547958A95E2F7CA018170898335C005
:10503000E6E3F0E08081282F30E08B81882F90E03C
:10504000A90102C0559547958A95E2F7CA0181707A
:10505000898323C0E3E3F0E08081282F30E08B8157
:10506000882F90E0A90102C0559547958A95E2F7EF
:10507000CA018170898311C0E0E3F0E08081282FAC
:1050800030E08B81882F90E0A90102C055954795AB
:105090008A95E2F7CA018170898389810F900F9008
:1050A0000F900F900F90CF91DF910895DF93CF93E2
:1050B00000D000D0CDB7DEB789836A838981282FDD
:1050C00030E03C832B838B819C8182309105D9F029
:1050D0002B813C812330310534F48B819C818130DC
:1050E000910561F01EC02B813C812330310581F098
:1050F0008B819C818430910581F013C0EAE3F0E05C
:105100008A8180830EC0E7E3F0E08A81808309C052
:10511000E4E3F0E08A81808304C0E1E3F0E08A8187
:1051200080830F900F900F900F90CF91DF91089593
:10513000DF93CF9300D000D0CDB7DEB789836A83E9
:105140008981282F30E03C832B838B819C818230A6
:105150009105D9F02B813C812330310534F48B81CA
:105160009C818130910561F01EC02B813C812330F0
:10517000310581F08B819C818430910581F013C0D1
:10518000EBE3F0E08A8180830EC0E8E3F0E08A81FF
:10519000808309C0E5E3F0E08A81808304C0E2E314
:1051A000F0E08A8180830F900F900F900F90CF9145
:1051B000DF910895DF93CF9300D000D0CDB7DEB755
:1051C00089836A838981282F30E03C832B838B81FC
:1051D0009C818230910551F12B813C812330310536
:1051E00034F48B819C818130910561F05AC02B8110
:1051F0003C812330310571F18B819C818430910594
:10520000E9F14FC0ABE3B0E0EBE3F0E08081482F81
:105210008A81282F30E081E090E0022E02C0880FC2
:10522000991F0A94E2F784278C933BC0A8E3B0E06F
:10523000E8E3F0E08081482F8A81282F30E081E088
:1052400090E0022E02C0880F991F0A94E2F784278B
:105250008C9327C0A5E3B0E0E5E3F0E08081482F20
:105260008A81282F30E081E090E0022E02C0880F72
:10527000991F0A94E2F784278C9313C0A2E3B0E04D
:10528000E2E3F0E08081482F8A81282F30E081E03E
:1052900090E0022E02C0880F991F0A94E2F784273B
:1052A0008C930F900F900F900F90CF91DF910895F6
:1052B000DF93CF93CDB7DEB727970FB6F894DEBF55
:1052C0000FBECDBF8A836B835D834C8319828A8135
:1052D000282F30E03F832E834E815F81423051057D
:1052E00059F18E819F818330910534F42E813F8165
:1052F0002130310569F05BC04E815F81433051053B
:1053000079F18E819F818430910509F43DC04FC0B1
:10531000E9E3F0E08081282F30E08B81882F90E056
:10532000A90102C0559547958A95E2F7CA01817097
:10533000EC81FD8180833BC0E6E3F0E08081282F93
:1053400030E08B81882F90E0A90102C055954795E8
:105350008A95E2F7CA018170EC81FD81808327C0C4
:10536000E3E3F0E08081282F30E08B81882F90E00C
:10537000A90102C0559547958A95E2F7CA01817047
:10538000EC81FD81808313C0E0E3F0E08081282F71
:1053900030E08B81882F90E0A90102C05595479598
:1053A0008A95E2F7CA018170EC81FD8180838C814E
:1053B0009D81009721F0EC81FD8189818083898125
:1053C00027960FB6F894DEBF0FBECDBFCF91DF9109
:1053D0000895629FD001739FF001829FE00DF11D3F
:1053E000649FE00DF11D929FF00D839FF00D749F5F
:1053F000F00D659FF00D9927729FB00DE11DF91F0B
:10540000639FB00DE11DF91FBD01CF011124089567
:10541000AA1BBB1B51E107C0AA1FBB1FA617B707DA
:1054200010F0A61BB70B881F991F5A95A9F78095F6
:105430009095BC01CD01089597FB092E05260ED04D
:1054400057FD04D014D00AD0001C38F45095409574
:10545000309521953F4F4F4F5F4F0895F6F7909548
:105460008095709561957F4F8F4F9F4F0895A1E272
:105470001A2EAA1BBB1BFD010DC0AA1FBB1FEE1FCE
:10548000FF1FA217B307E407F50720F0A21BB30B19
:10549000E40BF50B661F771F881F991F1A9469F795
:1054A00060957095809590959B01AC01BD01CF01F1
:1054B00008952F923F924F925F926F927F928F92B8
:1054C0009F92AF92BF92CF92DF92EF92FF920F9393
:1054D0001F93CF93DF93CDB7DEB7CA1BDB0B0FB69D
:1054E000F894DEBF0FBECDBF09942A88398848885A
:1054F0005F846E847D848C849B84AA84B984C884F0
:10550000DF80EE80FD800C811B81AA81B981CE0FE6
:10551000D11D0FB6F894DEBF0FBECDBFED010895CB
:10552000FC0101900020E9F7809590958E0F9F1F58
:065530000895F894FFCF7E
:1055360054656D703D2000305800000000000000EA
:10554600000000010202030303030404040404042C
:1055560004040505050505050505050505050505F7
:1055660005050606060606060606060606060606D7
:1055760006060606060606060606060606060606C5
:1055860006060707070707070707070707070707A7
:105596000707070707070707070707070707070795
:1055A6000707070707070707070707070707070785
:1055B6000707070707070707070707070707070775
:1055C6000707080808080808080808080808080857
:1055D6000808080808080808080808080808080845
:1055E6000808080808080808080808080808080835
:1055F6000808080808080808080808080808080825
:105606000808080808080808080808080808080814
:105616000808080808080808080808080808080804
:1056260008080808080808080808080808080808F4
:1056360008080808080808080808080808080808E4
:1056460008083738392F3435362A3132332D63304E
:105656003D2B01000000071D070000000000071D8C
:045666000700000039
:00000001FF
